{
  "_format": "hh-sol-artifact-1",
  "contractName": "TrustlessBTC",
  "sourceName": "contracts/tBTC.sol",
  "abi": [
    {
      "inputs": [
        {
          "internalType": "bytes21",
          "name": "inRoflAppID",
          "type": "bytes21"
        },
        {
          "internalType": "address",
          "name": "inOracle",
          "type": "address"
        },
        {
          "internalType": "string",
          "name": "domain",
          "type": "string"
        }
      ],
      "stateMutability": "nonpayable",
      "type": "constructor"
    },
    {
      "inputs": [],
      "name": "A13e_RevokedAuthToken",
      "type": "error"
    },
    {
      "inputs": [],
      "name": "InvalidPrivateKey",
      "type": "error"
    },
    {
      "inputs": [],
      "name": "InvalidSignature",
      "type": "error"
    },
    {
      "inputs": [],
      "name": "KeyGenerationFailed",
      "type": "error"
    },
    {
      "inputs": [],
      "name": "KeysAlreadyGenerated",
      "type": "error"
    },
    {
      "inputs": [],
      "name": "RoflOriginNotAuthorizedForApp",
      "type": "error"
    },
    {
      "inputs": [],
      "name": "SiweAuth_AddressMismatch",
      "type": "error"
    },
    {
      "inputs": [],
      "name": "SiweAuth_ChainIdMismatch",
      "type": "error"
    },
    {
      "inputs": [],
      "name": "SiweAuth_DomainMismatch",
      "type": "error"
    },
    {
      "inputs": [],
      "name": "SiweAuth_Expired",
      "type": "error"
    },
    {
      "inputs": [],
      "name": "SiweAuth_NotBeforeInFuture",
      "type": "error"
    },
    {
      "inputs": [],
      "name": "SiweParser_InvalidAddressLength",
      "type": "error"
    },
    {
      "inputs": [],
      "name": "SiweParser_InvalidNonce",
      "type": "error"
    },
    {
      "inputs": [],
      "name": "SubcallError",
      "type": "error"
    },
    {
      "inputs": [],
      "name": "UnauthorizedOracle",
      "type": "error"
    },
    {
      "anonymous": false,
      "inputs": [
        {
          "indexed": true,
          "internalType": "address",
          "name": "owner",
          "type": "address"
        },
        {
          "indexed": true,
          "internalType": "address",
          "name": "spender",
          "type": "address"
        },
        {
          "indexed": false,
          "internalType": "uint256",
          "name": "value",
          "type": "uint256"
        }
      ],
      "name": "Approval",
      "type": "event"
    },
    {
      "anonymous": false,
      "inputs": [
        {
          "indexed": false,
          "internalType": "uint256",
          "name": "burnId",
          "type": "uint256"
        }
      ],
      "name": "Burn",
      "type": "event"
    },
    {
      "anonymous": false,
      "inputs": [
        {
          "indexed": false,
          "internalType": "uint256",
          "name": "burnId",
          "type": "uint256"
        }
      ],
      "name": "BurnGenerateTransaction",
      "type": "event"
    },
    {
      "anonymous": false,
      "inputs": [
        {
          "indexed": false,
          "internalType": "uint256",
          "name": "burnId",
          "type": "uint256"
        },
        {
          "indexed": false,
          "internalType": "bytes",
          "name": "rawTx",
          "type": "bytes"
        }
      ],
      "name": "BurnSigned",
      "type": "event"
    },
    {
      "anonymous": false,
      "inputs": [
        {
          "indexed": false,
          "internalType": "uint256",
          "name": "burnId",
          "type": "uint256"
        }
      ],
      "name": "BurnValidateTransaction",
      "type": "event"
    },
    {
      "anonymous": false,
      "inputs": [
        {
          "indexed": false,
          "internalType": "uint256",
          "name": "burnId",
          "type": "uint256"
        }
      ],
      "name": "BurnValidated",
      "type": "event"
    },
    {
      "anonymous": false,
      "inputs": [
        {
          "indexed": false,
          "internalType": "bytes32",
          "name": "privateKey",
          "type": "bytes32"
        },
        {
          "indexed": false,
          "internalType": "bytes",
          "name": "publicKey",
          "type": "bytes"
        },
        {
          "indexed": false,
          "internalType": "string",
          "name": "bitcoinAddress",
          "type": "string"
        }
      ],
      "name": "KeysGenerated",
      "type": "event"
    },
    {
      "anonymous": false,
      "inputs": [
        {
          "indexed": true,
          "internalType": "bytes32",
          "name": "txHash",
          "type": "bytes32"
        },
        {
          "indexed": false,
          "internalType": "string",
          "name": "signature",
          "type": "string"
        },
        {
          "indexed": true,
          "internalType": "address",
          "name": "ethereumAddress",
          "type": "address"
        }
      ],
      "name": "TransactionProofSubmitted",
      "type": "event"
    },
    {
      "anonymous": false,
      "inputs": [
        {
          "indexed": true,
          "internalType": "address",
          "name": "from",
          "type": "address"
        },
        {
          "indexed": true,
          "internalType": "address",
          "name": "to",
          "type": "address"
        },
        {
          "indexed": false,
          "internalType": "uint256",
          "name": "value",
          "type": "uint256"
        }
      ],
      "name": "Transfer",
      "type": "event"
    },
    {
      "inputs": [
        {
          "internalType": "address",
          "name": "owner",
          "type": "address"
        },
        {
          "internalType": "address",
          "name": "spender",
          "type": "address"
        }
      ],
      "name": "allowance",
      "outputs": [
        {
          "internalType": "uint256",
          "name": "",
          "type": "uint256"
        }
      ],
      "stateMutability": "view",
      "type": "function"
    },
    {
      "inputs": [
        {
          "internalType": "address",
          "name": "spender",
          "type": "address"
        },
        {
          "internalType": "uint256",
          "name": "amount",
          "type": "uint256"
        }
      ],
      "name": "approve",
      "outputs": [
        {
          "internalType": "bool",
          "name": "",
          "type": "bool"
        }
      ],
      "stateMutability": "nonpayable",
      "type": "function"
    },
    {
      "inputs": [
        {
          "internalType": "address",
          "name": "account",
          "type": "address"
        }
      ],
      "name": "balanceOf",
      "outputs": [
        {
          "internalType": "uint256",
          "name": "",
          "type": "uint256"
        }
      ],
      "stateMutability": "view",
      "type": "function"
    },
    {
      "inputs": [],
      "name": "bitcoinAddress",
      "outputs": [
        {
          "internalType": "string",
          "name": "",
          "type": "string"
        }
      ],
      "stateMutability": "view",
      "type": "function"
    },
    {
      "inputs": [
        {
          "internalType": "uint256",
          "name": "amount",
          "type": "uint256"
        },
        {
          "internalType": "string",
          "name": "_bitcoinAddress",
          "type": "string"
        }
      ],
      "name": "burn",
      "outputs": [],
      "stateMutability": "nonpayable",
      "type": "function"
    },
    {
      "inputs": [],
      "name": "burnCounter",
      "outputs": [
        {
          "internalType": "uint256",
          "name": "",
          "type": "uint256"
        }
      ],
      "stateMutability": "view",
      "type": "function"
    },
    {
      "inputs": [
        {
          "internalType": "uint256",
          "name": "",
          "type": "uint256"
        }
      ],
      "name": "burnData",
      "outputs": [
        {
          "internalType": "address",
          "name": "user",
          "type": "address"
        },
        {
          "internalType": "uint256",
          "name": "amount",
          "type": "uint256"
        },
        {
          "internalType": "uint256",
          "name": "timestamp",
          "type": "uint256"
        },
        {
          "internalType": "string",
          "name": "bitcoinAddress",
          "type": "string"
        },
        {
          "internalType": "uint8",
          "name": "status",
          "type": "uint8"
        },
        {
          "internalType": "bytes32",
          "name": "transactionHash",
          "type": "bytes32"
        }
      ],
      "stateMutability": "view",
      "type": "function"
    },
    {
      "inputs": [
        {
          "internalType": "uint256",
          "name": "burnId",
          "type": "uint256"
        },
        {
          "internalType": "bytes",
          "name": "rawTx",
          "type": "bytes"
        },
        {
          "internalType": "bytes32",
          "name": "transactionHash",
          "type": "bytes32"
        }
      ],
      "name": "burnSigned",
      "outputs": [],
      "stateMutability": "nonpayable",
      "type": "function"
    },
    {
      "inputs": [],
      "name": "decimals",
      "outputs": [
        {
          "internalType": "uint8",
          "name": "",
          "type": "uint8"
        }
      ],
      "stateMutability": "view",
      "type": "function"
    },
    {
      "inputs": [
        {
          "internalType": "address",
          "name": "spender",
          "type": "address"
        },
        {
          "internalType": "uint256",
          "name": "subtractedValue",
          "type": "uint256"
        }
      ],
      "name": "decreaseAllowance",
      "outputs": [
        {
          "internalType": "bool",
          "name": "",
          "type": "bool"
        }
      ],
      "stateMutability": "nonpayable",
      "type": "function"
    },
    {
      "inputs": [],
      "name": "domain",
      "outputs": [
        {
          "internalType": "string",
          "name": "",
          "type": "string"
        }
      ],
      "stateMutability": "view",
      "type": "function"
    },
    {
      "inputs": [],
      "name": "generateBurnTransaction",
      "outputs": [],
      "stateMutability": "nonpayable",
      "type": "function"
    },
    {
      "inputs": [],
      "name": "generateKeys",
      "outputs": [],
      "stateMutability": "nonpayable",
      "type": "function"
    },
    {
      "inputs": [
        {
          "internalType": "address",
          "name": "spender",
          "type": "address"
        },
        {
          "internalType": "uint256",
          "name": "addedValue",
          "type": "uint256"
        }
      ],
      "name": "increaseAllowance",
      "outputs": [
        {
          "internalType": "bool",
          "name": "",
          "type": "bool"
        }
      ],
      "stateMutability": "nonpayable",
      "type": "function"
    },
    {
      "inputs": [],
      "name": "keysGenerated",
      "outputs": [
        {
          "internalType": "bool",
          "name": "",
          "type": "bool"
        }
      ],
      "stateMutability": "view",
      "type": "function"
    },
    {
      "inputs": [],
      "name": "lastVerifiedBurn",
      "outputs": [
        {
          "internalType": "uint256",
          "name": "",
          "type": "uint256"
        }
      ],
      "stateMutability": "view",
      "type": "function"
    },
    {
      "inputs": [
        {
          "internalType": "string",
          "name": "siweMsg",
          "type": "string"
        },
        {
          "components": [
            {
              "internalType": "bytes32",
              "name": "r",
              "type": "bytes32"
            },
            {
              "internalType": "bytes32",
              "name": "s",
              "type": "bytes32"
            },
            {
              "internalType": "uint256",
              "name": "v",
              "type": "uint256"
            }
          ],
          "internalType": "struct SignatureRSV",
          "name": "sig",
          "type": "tuple"
        }
      ],
      "name": "login",
      "outputs": [
        {
          "internalType": "bytes",
          "name": "",
          "type": "bytes"
        }
      ],
      "stateMutability": "view",
      "type": "function"
    },
    {
      "inputs": [
        {
          "internalType": "address",
          "name": "account",
          "type": "address"
        },
        {
          "internalType": "uint256",
          "name": "amount",
          "type": "uint256"
        },
        {
          "internalType": "bytes32",
          "name": "txHash",
          "type": "bytes32"
        }
      ],
      "name": "mint",
      "outputs": [],
      "stateMutability": "nonpayable",
      "type": "function"
    },
    {
      "inputs": [],
      "name": "name",
      "outputs": [
        {
          "internalType": "string",
          "name": "",
          "type": "string"
        }
      ],
      "stateMutability": "view",
      "type": "function"
    },
    {
      "inputs": [],
      "name": "oracle",
      "outputs": [
        {
          "internalType": "address",
          "name": "",
          "type": "address"
        }
      ],
      "stateMutability": "view",
      "type": "function"
    },
    {
      "inputs": [],
      "name": "publicKey",
      "outputs": [
        {
          "internalType": "bytes",
          "name": "",
          "type": "bytes"
        }
      ],
      "stateMutability": "view",
      "type": "function"
    },
    {
      "inputs": [],
      "name": "roflAppID",
      "outputs": [
        {
          "internalType": "bytes21",
          "name": "",
          "type": "bytes21"
        }
      ],
      "stateMutability": "view",
      "type": "function"
    },
    {
      "inputs": [
        {
          "internalType": "address",
          "name": "addr",
          "type": "address"
        }
      ],
      "name": "setOracle",
      "outputs": [],
      "stateMutability": "nonpayable",
      "type": "function"
    },
    {
      "inputs": [
        {
          "internalType": "bytes32",
          "name": "msgHash",
          "type": "bytes32"
        },
        {
          "internalType": "bytes",
          "name": "token",
          "type": "bytes"
        }
      ],
      "name": "sign",
      "outputs": [
        {
          "internalType": "uint256",
          "name": "nonce",
          "type": "uint256"
        },
        {
          "internalType": "uint256",
          "name": "r",
          "type": "uint256"
        },
        {
          "internalType": "uint256",
          "name": "s",
          "type": "uint256"
        },
        {
          "internalType": "uint8",
          "name": "v",
          "type": "uint8"
        }
      ],
      "stateMutability": "view",
      "type": "function"
    },
    {
      "inputs": [
        {
          "internalType": "bytes32",
          "name": "txHash",
          "type": "bytes32"
        },
        {
          "internalType": "string",
          "name": "signature",
          "type": "string"
        },
        {
          "internalType": "address",
          "name": "ethereumAddress",
          "type": "address"
        }
      ],
      "name": "submitMintTransactionProof",
      "outputs": [],
      "stateMutability": "nonpayable",
      "type": "function"
    },
    {
      "inputs": [
        {
          "internalType": "bytes32",
          "name": "",
          "type": "bytes32"
        }
      ],
      "name": "submittedTransactions",
      "outputs": [
        {
          "internalType": "bool",
          "name": "",
          "type": "bool"
        }
      ],
      "stateMutability": "view",
      "type": "function"
    },
    {
      "inputs": [],
      "name": "symbol",
      "outputs": [
        {
          "internalType": "string",
          "name": "",
          "type": "string"
        }
      ],
      "stateMutability": "view",
      "type": "function"
    },
    {
      "inputs": [],
      "name": "totalSupply",
      "outputs": [
        {
          "internalType": "uint256",
          "name": "",
          "type": "uint256"
        }
      ],
      "stateMutability": "view",
      "type": "function"
    },
    {
      "inputs": [
        {
          "internalType": "address",
          "name": "to",
          "type": "address"
        },
        {
          "internalType": "uint256",
          "name": "amount",
          "type": "uint256"
        }
      ],
      "name": "transfer",
      "outputs": [
        {
          "internalType": "bool",
          "name": "",
          "type": "bool"
        }
      ],
      "stateMutability": "nonpayable",
      "type": "function"
    },
    {
      "inputs": [
        {
          "internalType": "address",
          "name": "from",
          "type": "address"
        },
        {
          "internalType": "address",
          "name": "to",
          "type": "address"
        },
        {
          "internalType": "uint256",
          "name": "amount",
          "type": "uint256"
        }
      ],
      "name": "transferFrom",
      "outputs": [
        {
          "internalType": "bool",
          "name": "",
          "type": "bool"
        }
      ],
      "stateMutability": "nonpayable",
      "type": "function"
    },
    {
      "inputs": [
        {
          "internalType": "uint256",
          "name": "burnId",
          "type": "uint256"
        }
      ],
      "name": "validateBurn",
      "outputs": [],
      "stateMutability": "nonpayable",
      "type": "function"
    },
    {
      "inputs": [],
      "name": "validateBurnTransaction",
      "outputs": [],
      "stateMutability": "nonpayable",
      "type": "function"
    }
  ],
  "bytecode": "0x60806040526000600c556000600d553480156200001b57600080fd5b5060405162004b8638038062004b868339810160408190526200003e9162000325565b604080518082018252600d81526c54727573746c6573732042544360981b6020808301918252835180850190945260048452637442544360e01b90840152815184939162000090916003919062000236565b508051620000a690600490602084019062000236565b505050620000d06020604051806020016040528060008152506200014160201b620012df1760201c565b620000db9062000421565b6007558051620000f390600690602084019062000236565b5050600980546001600160a81b03191660589490941c93909317909255600880546001600160a01b0319166001600160a01b0392909216919091179055506011805460ff19169055620004d9565b60606000807301000000000000000000000000000000000000016001600160a01b031685856040516020016200017992919062000449565b60408051601f1981840301815290829052620001959162000485565b600060405180830381855afa9150503d8060008114620001d2576040519150601f19603f3d011682016040523d82523d6000602084013e620001d7565b606091505b5091509150816200022e5760405162461bcd60e51b815260206004820152601360248201527f72616e646f6d42797465733a206661696c656400000000000000000000000000604482015260640160405180910390fd5b949350505050565b8280546200024490620004a3565b90600052602060002090601f016020900481019282620002685760008555620002b3565b82601f106200028357805160ff1916838001178555620002b3565b82800160010185558215620002b3579182015b82811115620002b357825182559160200191906001019062000296565b50620002c1929150620002c5565b5090565b5b80821115620002c15760008155600101620002c6565b634e487b7160e01b600052604160045260246000fd5b60005b838110156200030f578181015183820152602001620002f5565b838111156200031f576000848401525b50505050565b6000806000606084860312156200033b57600080fd5b83516001600160581b0319811681146200035457600080fd5b60208501519093506001600160a01b03811681146200037257600080fd5b60408501519092506001600160401b03808211156200039057600080fd5b818601915086601f830112620003a557600080fd5b815181811115620003ba57620003ba620002dc565b604051601f8201601f19908116603f01168101908382118183101715620003e557620003e5620002dc565b81604052828152896020848701011115620003ff57600080fd5b62000412836020830160208801620002f2565b80955050505050509250925092565b8051602080830151919081101562000443576000198160200360031b1b821691505b50919050565b828152604060208201526000825180604084015262000470816060850160208701620002f2565b601f01601f1916919091016060019392505050565b6000825162000499818460208701620002f2565b9190910192915050565b600181811c90821680620004b857607f821691505b6020821081036200044357634e487b7160e01b600052602260045260246000fd5b61469d80620004e96000396000f3fe608060405234801561001057600080fd5b50600436106101f05760003560e01c8063728dda681161010f57806395d89b41116100a2578063c2fb26a611610071578063c2fb26a614610438578063dd62ed3e14610440578063ed986f1d14610453578063efae93df1461046657600080fd5b806395d89b41146103fd578063a457c2d714610405578063a9059cbb14610418578063b7982da71461042b57600080fd5b80637d5c0900116100de5780637d5c0900146103a35780637dc0d1d0146103b65780637f476b6f146103e1578063951f55dd146103f457600080fd5b8063728dda681461036d5780637641e6f3146103755780637651bc92146103885780637adbf9731461039057600080fd5b8063365e250b116101875780635b9d136c116101565780635b9d136c146103115780635d12fd641461031957806363ffab311461033c57806370a082311461034457600080fd5b8063365e250b146102ac57806339509351146102e25780633a19a35c146102f55780634c99007d1461030857600080fd5b8063223b7ea2116101c3578063223b7ea21461025d57806323b872dd14610282578063313ce56714610295578063332721c0146102a457600080fd5b806306fdde03146101f5578063095ea7b31461021357806318160ddd146102365780631e458bee14610248575b600080fd5b6101fd610490565b60405161020a91906139aa565b60405180910390f35b6102266102213660046139d2565b610522565b604051901515815260200161020a565b6002545b60405190815260200161020a565b61025b6102563660046139fe565b61053a565b005b61027061026b366004613a33565b6105c5565b60405161020a96959493929190613a4c565b610226610290366004613a91565b610692565b6040516008815260200161020a565b61025b6106b8565b6102bf6102ba366004613ba5565b610767565b6040805194855260208501939093529183015260ff16606082015260800161020a565b6102266102f03660046139d2565b610879565b61025b610303366004613c47565b61089b565b61023a600c5481565b61025b61098f565b610226610327366004613a33565b600a6020526000908152604090205460ff1681565b6101fd610a82565b61023a610352366004613c99565b6001600160a01b031660009081526020819052604090205490565b61025b610b10565b61025b610383366004613cd6565b610bb8565b6101fd610d14565b61025b61039e366004613c99565b610d21565b61025b6103b1366004613d12565b610d53565b6008546103c9906001600160a01b031681565b6040516001600160a01b03909116815260200161020a565b6101fd6103ef366004613d6c565b610dc9565b61023a600d5481565b6101fd6110d4565b6102266104133660046139d2565b6110e3565b6102266104263660046139d2565b611169565b6011546102269060ff1681565b6101fd611177565b61023a61044e366004613dca565b611186565b61025b610461366004613a33565b6111b1565b6009546104739060581b81565b6040516affffffffffffffffffffff19909116815260200161020a565b60606003805461049f90613e03565b80601f01602080910402602001604051908101604052809291908181526020018280546104cb90613e03565b80156105185780601f106104ed57610100808354040283529160200191610518565b820191906000526020600020905b8154815290600101906020018083116104fb57829003601f168201915b5050505050905090565b6000336105308185856113b2565b5060019392505050565b6008546001600160a01b031633146105655760405163db8d1fb760e01b815260040160405180910390fd5b6000818152600a602052604090205460ff161561059d5760405162461bcd60e51b815260040161059490613e37565b60405180910390fd5b6000818152600a60205260409020805460ff191660011790556105c083836114ce565b505050565b600b6020526000908152604090208054600182015460028301546003840180546001600160a01b039094169492939192916105ff90613e03565b80601f016020809104026020016040519081016040528092919081815260200182805461062b90613e03565b80156106785780601f1061064d57610100808354040283529160200191610678565b820191906000526020600020905b81548152906001019060200180831161065b57829003601f168201915b505050506004830154600590930154919260ff1691905086565b6000336106a085828561158e565b6106ab858585611608565b60019150505b9392505050565b6000600d5460016106c99190613e8f565b6000818152600b602052604090206004015490915060ff166001146107305760405162461bcd60e51b815260206004820152601e60248201527f4275726e207472616e73616374696f6e206e6f742067656e65726174656400006044820152606401610594565b6040518181527f9e82575b9111faf857338929e8d783c1d947a26ba51ddf6b53bb54deb9bb2db6906020015b60405180910390a150565b6040805180820190915260068152656f7261636c6560d01b602082015260085460009182918291829186916107a4916001600160a01b03166117ac565b6107db6040518060400160405280600d81526020016c30baba3426b9b3a9b2b73232b960991b8152506107d6836117f1565b6117ac565b6108076040518060400160405280600a81526020016936b9b39739b2b73232b960b11b815250336117ac565b6008546001600160a01b0316331480159061083e57506008546001600160a01b0316610832826117f1565b6001600160a01b031614155b1561085c5760405163db8d1fb760e01b815260040160405180910390fd5b610868600e5488611859565b929a91995097509095509350505050565b60003361053081858561088c8383611186565b6108969190613e8f565b6113b2565b6008546001600160a01b031633146108c65760405163db8d1fb760e01b815260040160405180910390fd5b6000848152600b602052604090206004015460ff1660011461092a5760405162461bcd60e51b815260206004820152601e60248201527f4275726e207472616e73616374696f6e206e6f742067656e65726174656400006044820152606401610594565b6000848152600b60205260409081902060048101805460ff19166002179055600501829055517fe1c6c2a8c203154ad099381869b466cefe62229bea109e8437d9db77bb7ca1ac9061098190869086908690613ea7565b60405180910390a150505050565b60115460ff16156109b357604051638bc2607960e01b815260040160405180910390fd5b60008060006109c0611b2c565b91945092509050826109e5576040516336f3aa6f60e21b815260040160405180910390fd5b8151600003610a07576040516336f3aa6f60e21b815260040160405180910390fd5b600e8390558151610a1f90600f9060208501906137f8565b508051610a339060109060208401906137f8565b506011805460ff191660011790556040517f5115bb2b6499674f83ba12d4cbda8520cb6c66a33b055030511fe09cc54a548390610a7590859085908590613edd565b60405180910390a1505050565b600f8054610a8f90613e03565b80601f0160208091040260200160405190810160405280929190818152602001828054610abb90613e03565b8015610b085780601f10610add57610100808354040283529160200191610b08565b820191906000526020600020905b815481529060010190602001808311610aeb57829003601f168201915b505050505081565b6000600d546001610b219190613e8f565b6000818152600b602052604090206004015490915060ff16600214610b885760405162461bcd60e51b815260206004820152601b60248201527f4275726e207472616e73616374696f6e206e6f74207369676e656400000000006044820152606401610594565b6040518181527f55cd74b4a56c33b26dab31dd62856e2612c9eea6e5c8104c51ddb4092f003fd79060200161075c565b600c8054906000610bc883613f08565b91905055506040518060c00160405280610bdf3390565b6001600160a01b0390811682526020808301869052426040808501919091526060808501879052600160808601819052600060a0909601869052600c548652600b845294829020865181546001600160a01b0319169516949094178455858301519484019490945584015160028301559183015180519192610c69926003850192909101906137f8565b50608082015160048201805460ff191660ff90921691909117905560a090910151600590910155610c9a3383611b66565b7fb90306ad06b2a6ff86ddc9327db583062895ef6540e62dc50add009db5b356eb600c54604051610ccd91815260200190565b60405180910390a17f9e82575b9111faf857338929e8d783c1d947a26ba51ddf6b53bb54deb9bb2db6600c54604051610d0891815260200190565b60405180910390a15050565b60108054610a8f90613e03565b60095460581b610d3081611c98565b50600880546001600160a01b0319166001600160a01b0392909216919091179055565b6000838152600a602052604090205460ff1615610d825760405162461bcd60e51b815260040161059490613e37565b806001600160a01b0316837f7837b147fa4937c358ad24213e667ebee6a1500caf7d6f10b926cd9186cdaff284604051610dbc91906139aa565b60405180910390a3505050565b6060610dd361387c565b6000610dde85611d85565b8686604051602001610df293929190613f21565b60408051601f19818403018152828252805160208083019190912060008086528583018086529190915260ff89850135169385019390935287356060850152870135608084015292509060019060a0016020604051602081039080840390855afa158015610e64573d6000803e3d6000fd5b5050604051601f1901516001600160a01b0381166020860152915060009050610e8d8888611e17565b9050468160a0015114610eb35760405163362c833760e01b815260040160405180910390fd5b6006604051610ec29190613f75565b604051809103902081600001518051906020012014610ef45760405163283d62bd60e01b815260040160405180910390fd5b8051845260208101516001600160a01b03838116911614610f28576040516305cc02e160e01b815260040160405180910390fd5b6101208101515115801590610f4a5750610f4681610120015161227e565b4211155b15610f685760405163299d02f160e01b815260040160405180910390fd5b6101008101515115610f8f576000610f8482610100015161227e565b604086015250610fa2565b610f9c6201518042613e8f565b60408501525b83604001514210610fc657604051630b17115560e41b815260040160405180910390fd5b60408101516060850152610160810151516001600160401b03811115610fee57610fee613ad2565b60405190808252806020026020018201604052801561102157816020015b606081526020019060019003908161100c5790505b50608085015260005b8161016001515181101561108b57816101600151818151811061104f5761104f614010565b60200260200101518560800151828151811061106d5761106d614010565b6020026020010181905250808061108390613f08565b91505061102a565b5060006110c76007546000801b876040516020016110a99190614026565b60408051601f198184030181526020830190915260008252906122f3565b9998505050505050505050565b60606004805461049f90613e03565b600033816110f18286611186565b9050838110156111515760405162461bcd60e51b815260206004820152602560248201527f45524332303a2064656372656173656420616c6c6f77616e63652062656c6f77604482015264207a65726f60d81b6064820152608401610594565b61115e82868684036113b2565b506001949350505050565b600033610530818585611608565b60606006805461049f90613e03565b6001600160a01b03918216600090815260016020908152604080832093909416825291909152205490565b6008546001600160a01b031633146111dc5760405163db8d1fb760e01b815260040160405180910390fd5b600d546111ea906001613e8f565b81146112285760405162461bcd60e51b815260206004820152600d60248201526c15dc9bdb99c8189d5c9b881251609a1b6044820152606401610594565b6000818152600b602052604090206004015460ff1660021461128c5760405162461bcd60e51b815260206004820152601b60248201527f4275726e207472616e73616374696f6e206e6f74207369676e656400000000006044820152606401610594565b6000818152600b602052604090819020600401805460ff19166003179055600d829055517f3b6b257ac74b84b471cfde2127a232baabeb4df267da1f2112c46e8b37e2eb1a9061075c9083815260200190565b60606000806001600160981b016001600160a01b031685856040516020016113089291906140e0565b60408051601f1981840301815290829052611322916140f9565b600060405180830381855afa9150503d806000811461135d576040519150601f19603f3d011682016040523d82523d6000602084013e611362565b606091505b5091509150816113aa5760405162461bcd60e51b81526020600482015260136024820152721c985b991bdb509e5d195cce8819985a5b1959606a1b6044820152606401610594565b949350505050565b6001600160a01b0383166114145760405162461bcd60e51b8152602060048201526024808201527f45524332303a20617070726f76652066726f6d20746865207a65726f206164646044820152637265737360e01b6064820152608401610594565b6001600160a01b0382166114755760405162461bcd60e51b815260206004820152602260248201527f45524332303a20617070726f766520746f20746865207a65726f206164647265604482015261737360f01b6064820152608401610594565b6001600160a01b0383811660008181526001602090815260408083209487168084529482529182902085905590518481527f8c5be1e5ebec7d5bd14f71427d1e84f3dd0314c0f7b2291e5b200ac8c7c3b9259101610dbc565b6001600160a01b0382166115245760405162461bcd60e51b815260206004820152601f60248201527f45524332303a206d696e7420746f20746865207a65726f2061646472657373006044820152606401610594565b80600260008282546115369190613e8f565b90915550506001600160a01b038216600081815260208181526040808320805486019055518481527fddf252ad1be2c89b69c2b068fc378daa952ba7f163c4a11628f55a4df523b3ef910160405180910390a35b5050565b600061159a8484611186565b9050600019811461160257818110156115f55760405162461bcd60e51b815260206004820152601d60248201527f45524332303a20696e73756666696369656e7420616c6c6f77616e63650000006044820152606401610594565b61160284848484036113b2565b50505050565b6001600160a01b03831661166c5760405162461bcd60e51b815260206004820152602560248201527f45524332303a207472616e736665722066726f6d20746865207a65726f206164604482015264647265737360d81b6064820152608401610594565b6001600160a01b0382166116ce5760405162461bcd60e51b815260206004820152602360248201527f45524332303a207472616e7366657220746f20746865207a65726f206164647260448201526265737360e81b6064820152608401610594565b6001600160a01b038316600090815260208190526040902054818110156117465760405162461bcd60e51b815260206004820152602660248201527f45524332303a207472616e7366657220616d6f756e7420657863656564732062604482015265616c616e636560d01b6064820152608401610594565b6001600160a01b03848116600081815260208181526040808320878703905593871680835291849020805487019055925185815290927fddf252ad1be2c89b69c2b068fc378daa952ba7f163c4a11628f55a4df523b3ef910160405180910390a3611602565b61158a82826040516024016117c2929190614115565b60408051601f198184030181529190526020810180516001600160e01b031663319af33360e01b1790526123c8565b8051602080830191909120600090815260059091526040812054829060ff161561182e576040516313d4cf0960e31b815260040160405180910390fd5b82516000036118405760009150611853565b600061184b846123d4565b602001519250505b50919050565b60008080808580158061187e575070014551231950b75fc4402da1732fc9bebe198110155b1561189c57604051633a98faef60e21b815260040160405180910390fd5b60405163c8db7a0560e01b8152600481018890526024810187905273__$595d719bf3ea57f15671819786dbba407f$__9063c8db7a0590604401602060405180830381865af41580156118f3573d6000803e3d6000fd5b505050506040513d601f19601f82011682018060405250810190611917919061413f565b9450611936600170014551231950b75fc4402da1732fc9bebe19614158565b6119409086614185565b61194b906001613e8f565b604051634f08f86b60e11b81526004810182905290955060009073__$4b6656ff4d44dcda56160d380fe9702bb7$__90639e11f0d6906024016040805180830381865af41580156119a0573d6000803e3d6000fd5b505050506040513d601f19601f820116820180604052508101906119c49190614199565b5090506119e370014551231950b75fc4402da1732fc9bebe1982614185565b6040516365232f3760e11b81526004810188905270014551231950b75fc4402da1732fc9bebe19602482015290955060009073__$4b6656ff4d44dcda56160d380fe9702bb7$__9063ca465e6e90604401602060405180830381865af4158015611a51573d6000803e3d6000fd5b505050506040513d601f19601f82011682018060405250810190611a75919061413f565b905070014551231950b75fc4402da1732fc9bebe198070014551231950b75fc4402da1732fc9bebe198589098a0882099450611ac4600270014551231950b75fc4402da1732fc9bebe196141bd565b851115611af257611ae78570014551231950b75fc4402da1732fc9bebe19614158565b945060019350611af7565b600093505b851580611b02575084155b15611b2057604051638baa579f60e01b815260040160405180910390fd5b50505092959194509250565b6000606080611b3961247e565b9250611b44836124d9565b91506000611b538360016125cd565b9050611b5e816127c8565b915050909192565b6001600160a01b038216611bc65760405162461bcd60e51b815260206004820152602160248201527f45524332303a206275726e2066726f6d20746865207a65726f206164647265736044820152607360f81b6064820152608401610594565b6001600160a01b03821660009081526020819052604090205481811015611c3a5760405162461bcd60e51b815260206004820152602260248201527f45524332303a206275726e20616d6f756e7420657863656564732062616c616e604482015261636560f01b6064820152608401610594565b6001600160a01b0383166000818152602081815260408083208686039055600280548790039055518581529192917fddf252ad1be2c89b69c2b068fc378daa952ba7f163c4a11628f55a4df523b3ef910160405180910390a3505050565b600080611d176040518060400160405280601781526020017f726f666c2e4973417574686f72697a65644f726967696e00000000000000000081525084604051602001611d039190605560f81b81526affffffffffffffffffffff1991909116600182015260160190565b604051602081830303815290604052612af5565b91509150816001600160401b03166000141580611d3657508051600114155b80611d67575080600081518110611d4f57611d4f614010565b6020910101516001600160f81b03191660f560f81b14155b156105c057604051636890282f60e01b815260040160405180910390fd5b60606000611d9283612bcb565b60010190506000816001600160401b03811115611db157611db1613ad2565b6040519080825280601f01601f191660200182016040528015611ddb576020820181803683370190505b5090508181016020015b600019016f181899199a1a9b1b9c1cb0b131b232b360811b600a86061a8153600a8504945084611de557509392505050565b611e1f6138b4565b611e276138b4565b60005b83811015611eb857848482818110611e4457611e44614010565b909101356001600160f81b031916600160fd1b039050611ea657611e9f85858080601f01602080910402602001604051908101604052809392919081815260200183838082843760009201829052509250859150612ca39050565b8252611eb8565b80611eb081613f08565b915050611e2a565b611ec3603282613e8f565b9050611f2a611f2586868080601f016020809104026020016040519081016040528093929190818152602001838380828437600092019190915250611f0f925060029150869050613e8f565b935083611f1d602882613e8f565b945084612ca3565b612d79565b6001600160a01b03166020830152611f43600282613e8f565b90508381108015611f7d5750848482818110611f6157611f61614010565b9050013560f81c60f81b6001600160f81b031916600560f91b14155b1561202657805b8481101561202457858582818110611f9e57611f9e614010565b909101356001600160f81b031916600560f91b03905061201257611ffb86868080601f016020809104026020016040519081016040528093929190818152602001838380828437600092019190915250869250859150612ca39050565b604084015261200b816001613e8f565b9150612024565b8061201c81613f08565b915050611f84565b505b8061203081613f08565b91505061205a85856040518060400160405280600381526020016255524960e81b81525084612eb4565b8360600181935082905250506120918585604051806040016040528060078152602001662b32b939b4b7b760c91b81525084612eb4565b83608001819350829052505060606120cb86866040518060400160405280600881526020016710da185a5b88125160c21b81525085612eb4565b925090506120d8816130be565b60a08401526040805180820190915260058152644e6f6e636560d81b6020820152612107908790879085612eb4565b60c0850182905290519092506008111561213457604051632d2f00c360e21b815260040160405180910390fd5b612161868660405180604001604052806009815260200168125cdcdd595908105d60ba1b81525085612eb4565b8460e00181945082905250506121a086866040518060400160405280600f81526020016e45787069726174696f6e2054696d6560881b81525085612eb4565b846101000181945082905250506121db86866040518060400160405280600a8152602001694e6f74204265666f726560b01b81525085612eb4565b8461012001819450829052505061221686866040518060400160405280600a81526020016914995c5d595cdd08125160b21b81525085612eb4565b8461014001819450829052505060006122528787604051806040016040528060098152602001685265736f757263657360b81b81525086612eb4565b91505082811461227357612267878783613122565b61016086019190915292505b509195945050505050565b60006122ed6122986122938460006004612ca3565b6130be565b6122a86122938560056007612ca3565b6122b8612293866008600a612ca3565b6122c861229387600b600d612ca3565b6122d861229388600e6010612ca3565b6122e86122938960116013612ca3565b613412565b92915050565b60606000806003600160981b016001600160a01b03168787878760405160200161232094939291906141d1565b60408051601f198184030181529082905261233a916140f9565b600060405180830381855afa9150503d8060008114612375576040519150601f19603f3d011682016040523d82523d6000602084013e61237a565b606091505b5091509150816123be5760405162461bcd60e51b815260206004820152600f60248201526e195b98dc9e5c1d0e8819985a5b1959608a1b6044820152606401610594565b9695505050505050565b6123d1816135c9565b50565b6123dc61387c565b60006123fe6007546000801b85604051806020016040528060008152506135ea565b9050600081806020019051810190612416919061430b565b905060066040516124279190613f75565b6040518091039020816000015180519060200120146124595760405163283d62bd60e01b815260040160405180910390fd5b42816040015110156106b157604051630b17115560e41b815260040160405180910390fd5b60008061249b6020604051806020016040528060008152506112df565b8051602090910120905060006124c4600170014551231950b75fc4402da1732fc9bebe19614158565b6124ce9083614185565b6106b1906001613e8f565b6060818015806124fb575070014551231950b75fc4402da1732fc9bebe198110155b1561251957604051633a98faef60e21b815260040160405180910390fd5b60405163bc9e2bcf60e01b815260048101829052600090819073__$4b6656ff4d44dcda56160d380fe9702bb7$__9063bc9e2bcf906024016040805180830381865af415801561256d573d6000803e3d6000fd5b505050506040513d601f19601f820116820180604052508101906125919190614199565b604051600160fa1b6020820152602181018390526041810182905291935091506061016040516020818303038152906040529350505050919050565b6060600060036002856040516125e391906140f9565b602060405180830381855afa158015612600573d6000803e3d6000fd5b5050506040513d601f19601f82011682018060405250810190612623919061413f565b60405160200161263591815260200190565b60408051601f198184030181529082905261264f916140f9565b602060405180830381855afa15801561266c573d6000803e3d6000fd5b5050506040515160601b905060008361268657600061268c565b606f60f81b5b6040516001600160f81b0319821660208201526bffffffffffffffffffffffff1984166021820152909150600090603501604051602081830303815290604052905060006002826040516126e091906140f9565b602060405180830381855afa1580156126fd573d6000803e3d6000fd5b5050506040513d601f19601f82011682018060405250810190612720919061413f565b9050600060028260405160200161273991815260200190565b60408051601f1981840301815290829052612753916140f9565b602060405180830381855afa158015612770573d6000803e3d6000fd5b5050506040513d601f19601f82011682018060405250810190612793919061413f565b60405190915081906127ab90859083906020016143da565b604051602081830303815290604052965050505050505092915050565b606060006040518060600160405280603a815260200161462e603a913990506000835160026127f79190614409565b6001600160401b0381111561280e5761280e613ad2565b604051908082528060200260200182016040528015612837578160200160208202803683370190505b509050600160005b855181101561294e57600086828151811061285c5761285c614010565b016020015160f81c905060005b838110156128eb5784818151811061288357612883614010565b60200260200101516101006128989190614409565b6128a29083613e8f565b91506128af603a83614185565b8582815181106128c1576128c1614010565b60209081029190910101526128d7603a836141bd565b9150806128e381613f08565b915050612869565b505b801561293b576128fe603a82614185565b84848151811061291057612910614010565b60209081029190910101528261292581613f08565b93506129349050603a826141bd565b90506128ed565b508061294681613f08565b91505061283f565b5060005b855181108015612980575085818151811061296f5761296f614010565b01602001516001600160f81b031916155b15612997578061298f81613f08565b915050612952565b60006129a38284613e8f565b6001600160401b038111156129ba576129ba613ad2565b6040519080825280601f01601f1916602001820160405280156129e4576020820181803683370190505b50905060005b82811015612a4b5785600081518110612a0557612a05614010565b602001015160f81c60f81b828281518110612a2257612a22614010565b60200101906001600160f81b031916908160001a90535080612a4381613f08565b9150506129ea565b5060005b83811015612aea57858582612a65600188614158565b612a6f9190614158565b81518110612a7f57612a7f614010565b602002602001015181518110612a9757612a97614010565b01602001516001600160f81b03191682612ab18386613e8f565b81518110612ac157612ac1614010565b60200101906001600160f81b031916908160001a90535080612ae281613f08565b915050612a4f565b509695505050505050565b600060606000807301000000000000000000000000000000000001036001600160a01b03168686604051602001612b2d929190614428565b60408051601f1981840301815290829052612b47916140f9565b600060405180830381855afa9150503d8060008114612b82576040519150601f19603f3d011682016040523d82523d6000602084013e612b87565b606091505b509150915081612baa57604051631205d29f60e31b815260040160405180910390fd5b80806020019051810190612bbe9190614456565b9097909650945050505050565b60008072184f03e93ff9f4daa797ed6e38ed64bf6a1f0160401b8310612c0a5772184f03e93ff9f4daa797ed6e38ed64bf6a1f0160401b830492506040015b6d04ee2d6d415b85acef81000000008310612c36576d04ee2d6d415b85acef8100000000830492506020015b662386f26fc100008310612c5457662386f26fc10000830492506010015b6305f5e1008310612c6c576305f5e100830492506008015b6127108310612c8057612710830492506004015b60648310612c92576064830492506002015b600a83106122ed5760010192915050565b60606000612cb18484614158565b6001600160401b03811115612cc857612cc8613ad2565b6040519080825280601f01601f191660200182016040528015612cf2576020820181803683370190505b509050835b8381108015612d065750855181105b15612d7057858181518110612d1d57612d1d614010565b01602001516001600160f81b03191682612d378784614158565b81518110612d4757612d47614010565b60200101906001600160f81b031916908160001a90535080612d6881613f08565b915050612cf7565b50949350505050565b60008151602814612d9d5760405163acf8696960e01b815260040160405180910390fd5b600060028351612dad91906141bd565b6001600160401b03811115612dc457612dc4613ad2565b6040519080825280601f01601f191660200182016040528015612dee576020820181803683370190505b50905060005b60028451612e0291906141bd565b811015612ea057612e4084612e18836002614409565b612e23906001613e8f565b81518110612e3357612e33614010565b016020015160f81c6136b5565b612e4f85612e23846002614409565b612e5a9060106144b7565b612e6491906144e0565b60f81b828281518110612e7957612e79614010565b60200101906001600160f81b031916908160001a905350612e9981613f08565b9050612df4565b50612eaa81614505565b60601c9392505050565b60606000825b85811015612fcf57868682818110612ed457612ed4614010565b909101356001600160f81b031916601d60f91b039050612fbd578480519060200120612f3988888080601f016020809104026020016040519081016040528093929190818152602001838380828437600092019190915250899250869150612ca39050565b8051906020012014612f5e5750506040805160208101909152600081529050816130b5565b80612f6881613f08565b9150508581108015612fa25750868682818110612f8757612f87614010565b9050013560f81c60f81b6001600160f81b031916600160fd1b145b15612fb55780612fb181613f08565b9150505b809350612fcf565b80612fc781613f08565b915050612eba565b8581101561306d57868682818110612fe957612fe9614010565b909101356001600160f81b031916600560f91b03905061305b5761304687878080601f016020809104026020016040519081016040528093929190818152602001838380828437600092019190915250889250859150612ca39050565b613051826001613e8f565b92509250506130b5565b8061306581613f08565b915050612fcf565b6130b087878080601f016020809104026020016040519081016040528093929190818152602001838380828437600092019190915250889250859150612ca39050565b925090505b94509492505050565b600080805b835181101561311b5760308482815181106130e0576130e0614010565b01602001516130f2919060f81c614158565b6130fd83600a614409565b6131079190613e8f565b91508061311381613f08565b9150506130c3565b5092915050565b6060600082815b613134600187614158565b82101561322f5786868381811061314d5761314d614010565b9050013560f81c60f81b6001600160f81b031916602d60f81b1480156131a55750868661317b846001613e8f565b81811061318a5761318a614010565b9050013560f81c60f81b6001600160f81b031916600160fd1b145b156131c9576131b5600283613e8f565b9150806131c181613f08565b9150506131ce565b61322f565b858210801561320657508686838181106131ea576131ea614010565b9050013560f81c60f81b6001600160f81b031916600a60f81b14155b1561321d578161321581613f08565b9250506131ce565b8161322781613f08565b925050613129565b6000816001600160401b0381111561324957613249613ad2565b60405190808252806020026020018201604052801561327c57816020015b60608152602001906001900390816132675790505b50905085925060005b613290600189614158565b8410801561329e5750828114155b15613404578888858181106132b5576132b5614010565b9050013560f81c60f81b6001600160f81b031916602d60f81b14801561330d575088886132e3866001613e8f565b8181106132f2576132f2614010565b9050013560f81c60f81b6001600160f81b031916600160fd1b145b156133205761331d846002613e8f565b96505b8784108015613358575088888581811061333c5761333c614010565b9050013560f81c60f81b6001600160f81b031916600a60f81b14155b1561336f578361336781613f08565b945050613320565b6133b289898080601f0160208091040260200160405190810160405280939291908181526020018383808284376000920191909152508b9250889150612ca39050565b8282815181106133c4576133c4614010565b602002602001018190525080806133da90613f08565b9150508784036133f257836133ee81614541565b9450505b836133fc81613f08565b945050613285565b509791965090945050505050565b60006107b25b8761ffff168161ffff16101561346e5761343181613799565b1561344b576134446301e2850083613e8f565b915061345c565b6134596301e1338083613e8f565b91505b8061346681614558565b915050613418565b61347661391e565b601f815261348389613799565b1561349457601d602082015261349c565b601c60208201525b601f60408201819052601e606083018190526080830182905260a0830181905260c0830182905260e0830182905261010083018190526101208301829052610140830152610160820152600191505b8760ff168261ffff1610156135505780613506600184614579565b61ffff16600c811061351a5761351a614010565b602002015161352c906201518061459c565b61353c9063ffffffff1684613e8f565b92508161354881614558565b9250506134eb565b61355b6001886145c8565b61356b9060ff166201518061459c565b61357b9063ffffffff1684613e8f565b925061358c60ff8716610e1061459c565b61359c9063ffffffff1684613e8f565b92506135ac60ff8616603c6145eb565b6135ba9061ffff1684613e8f565b92506110c760ff851684613e8f565b60006a636f6e736f6c652e6c6f679050600080835160208501845afa505050565b60606000806004600160981b016001600160a01b03168787878760405160200161361794939291906141d1565b60408051601f1981840301815290829052613631916140f9565b600060405180830381855afa9150503d806000811461366c576040519150601f19603f3d011682016040523d82523d6000602084013e613671565b606091505b5091509150816123be5760405162461bcd60e51b815260206004820152600f60248201526e191958dc9e5c1d0e8819985a5b1959608a1b6044820152606401610594565b6000600360fc1b60f883901b6001600160f81b031916108015906136eb5750603960f81b60f883901b6001600160f81b03191611155b156136fb576122ed6030836145c8565b606160f81b60f883901b6001600160f81b0319161080159061372f5750603360f91b60f883901b6001600160f81b03191611155b1561374b57606161374183600a6144e0565b6122ed91906145c8565b604160f81b60f883901b6001600160f81b0319161080159061377f5750602360f91b60f883901b6001600160f81b03191611155b1561379157604161374183600a6144e0565b506000919050565b60006137a660048361460c565b61ffff16156137b757506000919050565b6137c260648361460c565b61ffff16156137d357506001919050565b6137df6101908361460c565b61ffff16156137f057506000919050565b506001919050565b82805461380490613e03565b90600052602060002090601f016020900481019282613826576000855561386c565b82601f1061383f57805160ff191683800117855561386c565b8280016001018555821561386c579182015b8281111561386c578251825591602001919060010190613851565b5061387892915061393d565b5090565b6040518060a001604052806060815260200160006001600160a01b031681526020016000815260200160608152602001606081525090565b6040518061018001604052806060815260200160006001600160a01b03168152602001606081526020016060815260200160608152602001600081526020016060815260200160608152602001606081526020016060815260200160608152602001606081525090565b604051806101800160405280600c906020820280368337509192915050565b5b80821115613878576000815560010161393e565b60005b8381101561396d578181015183820152602001613955565b838111156116025750506000910152565b60008151808452613996816020860160208601613952565b601f01601f19169290920160200192915050565b6020815260006106b1602083018461397e565b6001600160a01b03811681146123d157600080fd5b600080604083850312156139e557600080fd5b82356139f0816139bd565b946020939093013593505050565b600080600060608486031215613a1357600080fd5b8335613a1e816139bd565b95602085013595506040909401359392505050565b600060208284031215613a4557600080fd5b5035919050565b60018060a01b038716815285602082015284604082015260c060608201526000613a7960c083018661397e565b60ff9490941660808301525060a00152949350505050565b600080600060608486031215613aa657600080fd5b8335613ab1816139bd565b92506020840135613ac1816139bd565b929592945050506040919091013590565b634e487b7160e01b600052604160045260246000fd5b60405160a081016001600160401b0381118282101715613b0a57613b0a613ad2565b60405290565b604051601f8201601f191681016001600160401b0381118282101715613b3857613b38613ad2565b604052919050565b60006001600160401b03821115613b5957613b59613ad2565b50601f01601f191660200190565b6000613b7a613b7584613b40565b613b10565b9050828152838383011115613b8e57600080fd5b828260208301376000602084830101529392505050565b60008060408385031215613bb857600080fd5b8235915060208301356001600160401b03811115613bd557600080fd5b8301601f81018513613be657600080fd5b613bf585823560208401613b67565b9150509250929050565b60008083601f840112613c1157600080fd5b5081356001600160401b03811115613c2857600080fd5b602083019150836020828501011115613c4057600080fd5b9250929050565b60008060008060608587031215613c5d57600080fd5b8435935060208501356001600160401b03811115613c7a57600080fd5b613c8687828801613bff565b9598909750949560400135949350505050565b600060208284031215613cab57600080fd5b81356106b1816139bd565b600082601f830112613cc757600080fd5b6106b183833560208501613b67565b60008060408385031215613ce957600080fd5b8235915060208301356001600160401b03811115613d0657600080fd5b613bf585828601613cb6565b600080600060608486031215613d2757600080fd5b8335925060208401356001600160401b03811115613d4457600080fd5b613d5086828701613cb6565b9250506040840135613d61816139bd565b809150509250925092565b60008060008385036080811215613d8257600080fd5b84356001600160401b03811115613d9857600080fd5b613da487828801613bff565b9095509350506060601f1982011215613dbc57600080fd5b506020840190509250925092565b60008060408385031215613ddd57600080fd5b8235613de8816139bd565b91506020830135613df8816139bd565b809150509250929050565b600181811c90821680613e1757607f821691505b60208210810361185357634e487b7160e01b600052602260045260246000fd5b60208082526022908201527f5472616e73616374696f6e206861736820616c72656164792070726f63657373604082015261195960f21b606082015260800190565b634e487b7160e01b600052601160045260246000fd5b60008219821115613ea257613ea2613e79565b500190565b83815260406020820152816040820152818360608301376000818301606090810191909152601f909201601f1916010192915050565b838152606060208201526000613ef6606083018561397e565b82810360408401526123be818561397e565b600060018201613f1a57613f1a613e79565b5060010190565b7f19457468657265756d205369676e6564204d6573736167653a0a000000000000815260008451613f5981601a850160208901613952565b82018385601a83013760009301601a0192835250909392505050565b600080835481600182811c915080831680613f9157607f831692505b60208084108203613fb057634e487b7160e01b86526022600452602486fd5b818015613fc45760018114613fd557614002565b60ff19861689528489019650614002565b60008a81526020902060005b86811015613ffa5781548b820152908501908301613fe1565b505084890196505b509498975050505050505050565b634e487b7160e01b600052603260045260246000fd5b60006020808352835160a08285015261404260c085018261397e565b905060018060a01b0382860151166040850152604085015160608501526060850151601f198086840301608087015261407b838361397e565b6080880151878203830160a089015280518083529194508501925084840190600581901b8501860160005b828110156140d257848783030184526140c082875161397e565b958801959388019391506001016140a6565b509998505050505050505050565b8281526040602082015260006113aa604083018461397e565b6000825161410b818460208701613952565b9190910192915050565b604081526000614128604083018561397e565b905060018060a01b03831660208301529392505050565b60006020828403121561415157600080fd5b5051919050565b60008282101561416a5761416a613e79565b500390565b634e487b7160e01b600052601260045260246000fd5b6000826141945761419461416f565b500690565b600080604083850312156141ac57600080fd5b505080516020909101519092909150565b6000826141cc576141cc61416f565b500490565b8481528360208201526080604082015260006141f0608083018561397e565b8281036060840152614202818561397e565b979650505050505050565b600061421b613b7584613b40565b905082815283838301111561422f57600080fd5b6106b1836020830184613952565b600082601f83011261424e57600080fd5b6106b18383516020850161420d565b8051614268816139bd565b919050565b600082601f83011261427e57600080fd5b815160206001600160401b038083111561429a5761429a613ad2565b8260051b6142a9838201613b10565b93845285810183019383810190888611156142c357600080fd5b84880192505b858310156142ff578251848111156142e15760008081fd5b6142ef8a87838c010161423d565b83525091840191908401906142c9565b98975050505050505050565b60006020828403121561431d57600080fd5b81516001600160401b038082111561433457600080fd5b9083019060a0828603121561434857600080fd5b614350613ae8565b82518281111561435f57600080fd5b61436b8782860161423d565b82525061437a6020840161425d565b60208201526040830151604082015260608301518281111561439b57600080fd5b6143a78782860161423d565b6060830152506080830151828111156143bf57600080fd5b6143cb8782860161426d565b60808301525095945050505050565b600083516143ec818460208801613952565b6001600160e01b0319939093169190920190815260040192915050565b600081600019048311821515161561442357614423613e79565b500290565b60408152600061443b604083018561397e565b828103602084015261444d818561397e565b95945050505050565b6000806040838503121561446957600080fd5b82516001600160401b03808216821461448157600080fd5b60208501519193508082111561449657600080fd5b508301601f810185136144a857600080fd5b613bf58582516020840161420d565b600060ff821660ff84168160ff04811182151516156144d8576144d8613e79565b029392505050565b600060ff821660ff84168060ff038211156144fd576144fd613e79565b019392505050565b805160208201516bffffffffffffffffffffffff1980821692919060148310156145395780818460140360031b1b83161693505b505050919050565b60008161455057614550613e79565b506000190190565b600061ffff80831681810361456f5761456f613e79565b6001019392505050565b600061ffff8381169083168181101561459457614594613e79565b039392505050565b600063ffffffff808316818516818304811182151516156145bf576145bf613e79565b02949350505050565b600060ff821660ff8416808210156145e2576145e2613e79565b90039392505050565b600061ffff808316818516818304811182151516156145bf576145bf613e79565b600061ffff808416806146215761462161416f565b9216919091069291505056fe31323334353637383941424344454647484a4b4c4d4e505152535455565758595a6162636465666768696a6b6d6e6f707172737475767778797aa2646970667358221220bacb189eea1f3b1fcc03767dca68a32416059426604e5ef7f057691249b68dca64736f6c634300080d0033",
  "linkReferences": {
    "contracts/utils/RFC6979.sol": {
      "RFC6979": [
        {
          "length": 20,
          "start": 7586
        }
      ]
    },
    "contracts/utils/SECP256K1.sol": {
      "SECP256K1": [
        {
          "length": 20,
          "start": 7760
        },
        {
          "length": 20,
          "start": 7936
        },
        {
          "length": 20,
          "start": 10781
        }
      ]
    }
  },
  "deployedLinkReferences": {
    "contracts/utils/RFC6979.sol": {
      "RFC6979": [
        {
          "length": 20,
          "start": 6329
        }
      ]
    },
    "contracts/utils/SECP256K1.sol": {
      "SECP256K1": [
        {
          "length": 20,
          "start": 6503
        },
        {
          "length": 20,
          "start": 6679
        },
        {
          "length": 20,
          "start": 9524
        }
      ]
    }
  }
}