{"abi":[{"type":"constructor","inputs":[{"name":"inRoflAppID","type":"bytes21","internalType":"bytes21"},{"name":"inOracle","type":"address","internalType":"address"}],"stateMutability":"nonpayable"},{"type":"function","name":"allowance","inputs":[{"name":"owner","type":"address","internalType":"address"},{"name":"spender","type":"address","internalType":"address"}],"outputs":[{"name":"","type":"uint256","internalType":"uint256"}],"stateMutability":"view"},{"type":"function","name":"approve","inputs":[{"name":"spender","type":"address","internalType":"address"},{"name":"value","type":"uint256","internalType":"uint256"}],"outputs":[{"name":"","type":"bool","internalType":"bool"}],"stateMutability":"nonpayable"},{"type":"function","name":"balanceOf","inputs":[{"name":"account","type":"address","internalType":"address"}],"outputs":[{"name":"","type":"uint256","internalType":"uint256"}],"stateMutability":"view"},{"type":"function","name":"bitcoinAddress","inputs":[],"outputs":[{"name":"","type":"string","internalType":"string"}],"stateMutability":"view"},{"type":"function","name":"burn","inputs":[{"name":"amount","type":"uint256","internalType":"uint256"},{"name":"_bitcoinAddress","type":"string","internalType":"string"}],"outputs":[],"stateMutability":"nonpayable"},{"type":"function","name":"burnCounter","inputs":[],"outputs":[{"name":"","type":"uint256","internalType":"uint256"}],"stateMutability":"view"},{"type":"function","name":"burnData","inputs":[{"name":"","type":"uint256","internalType":"uint256"}],"outputs":[{"name":"user","type":"address","internalType":"address"},{"name":"amount","type":"uint256","internalType":"uint256"},{"name":"timestamp","type":"uint256","internalType":"uint256"},{"name":"bitcoinAddress","type":"string","internalType":"string"},{"name":"signedTransaction","type":"bytes","internalType":"bytes"},{"name":"transactionHash","type":"bytes32","internalType":"bytes32"},{"name":"status","type":"uint8","internalType":"uint8"}],"stateMutability":"view"},{"type":"function","name":"decimals","inputs":[],"outputs":[{"name":"","type":"uint8","internalType":"uint8"}],"stateMutability":"view"},{"type":"function","name":"generateBurnTransaction","inputs":[{"name":"burnId","type":"uint256","internalType":"uint256"}],"outputs":[],"stateMutability":"nonpayable"},{"type":"function","name":"lastVerifiedBurn","inputs":[],"outputs":[{"name":"","type":"uint256","internalType":"uint256"}],"stateMutability":"view"},{"type":"function","name":"mint","inputs":[{"name":"account","type":"address","internalType":"address"},{"name":"amount","type":"uint256","internalType":"uint256"},{"name":"txHash","type":"bytes32","internalType":"bytes32"}],"outputs":[],"stateMutability":"nonpayable"},{"type":"function","name":"name","inputs":[],"outputs":[{"name":"","type":"string","internalType":"string"}],"stateMutability":"view"},{"type":"function","name":"oracle","inputs":[],"outputs":[{"name":"","type":"address","internalType":"address"}],"stateMutability":"view"},{"type":"function","name":"publicKey","inputs":[],"outputs":[{"name":"","type":"bytes","internalType":"bytes"}],"stateMutability":"view"},{"type":"function","name":"roflAppID","inputs":[],"outputs":[{"name":"","type":"bytes21","internalType":"bytes21"}],"stateMutability":"view"},{"type":"function","name":"setOracle","inputs":[{"name":"addr","type":"address","internalType":"address"}],"outputs":[],"stateMutability":"nonpayable"},{"type":"function","name":"signBurn","inputs":[{"name":"burnId","type":"uint256","internalType":"uint256"},{"name":"transactionHash","type":"bytes32","internalType":"bytes32"},{"name":"transactionDetails","type":"bytes","internalType":"bytes"}],"outputs":[],"stateMutability":"nonpayable"},{"type":"function","name":"submitMintTransactionProof","inputs":[{"name":"txHash","type":"bytes32","internalType":"bytes32"},{"name":"signature","type":"bytes","internalType":"bytes"},{"name":"ethereumAddress","type":"address","internalType":"address"}],"outputs":[],"stateMutability":"nonpayable"},{"type":"function","name":"submittedTransactions","inputs":[{"name":"","type":"bytes32","internalType":"bytes32"}],"outputs":[{"name":"","type":"bool","internalType":"bool"}],"stateMutability":"view"},{"type":"function","name":"symbol","inputs":[],"outputs":[{"name":"","type":"string","internalType":"string"}],"stateMutability":"view"},{"type":"function","name":"totalSupply","inputs":[],"outputs":[{"name":"","type":"uint256","internalType":"uint256"}],"stateMutability":"view"},{"type":"function","name":"transfer","inputs":[{"name":"to","type":"address","internalType":"address"},{"name":"value","type":"uint256","internalType":"uint256"}],"outputs":[{"name":"","type":"bool","internalType":"bool"}],"stateMutability":"nonpayable"},{"type":"function","name":"transferFrom","inputs":[{"name":"from","type":"address","internalType":"address"},{"name":"to","type":"address","internalType":"address"},{"name":"value","type":"uint256","internalType":"uint256"}],"outputs":[{"name":"","type":"bool","internalType":"bool"}],"stateMutability":"nonpayable"},{"type":"function","name":"validateBurn","inputs":[{"name":"burnId","type":"uint256","internalType":"uint256"}],"outputs":[],"stateMutability":"nonpayable"},{"type":"function","name":"validateBurnTransaction","inputs":[{"name":"burnId","type":"uint256","internalType":"uint256"}],"outputs":[],"stateMutability":"nonpayable"},{"type":"event","name":"Approval","inputs":[{"name":"owner","type":"address","indexed":true,"internalType":"address"},{"name":"spender","type":"address","indexed":true,"internalType":"address"},{"name":"value","type":"uint256","indexed":false,"internalType":"uint256"}],"anonymous":false},{"type":"event","name":"Burn","inputs":[{"name":"burnId","type":"uint256","indexed":false,"internalType":"uint256"}],"anonymous":false},{"type":"event","name":"BurnGenerateTransaction","inputs":[{"name":"burnId","type":"uint256","indexed":false,"internalType":"uint256"}],"anonymous":false},{"type":"event","name":"BurnValidateTransaction","inputs":[{"name":"burnId","type":"uint256","indexed":false,"internalType":"uint256"}],"anonymous":false},{"type":"event","name":"TransactionProofSubmitted","inputs":[{"name":"txHash","type":"bytes32","indexed":true,"internalType":"bytes32"},{"name":"signature","type":"bytes","indexed":false,"internalType":"bytes"},{"name":"ethereumAddress","type":"address","indexed":true,"internalType":"address"}],"anonymous":false},{"type":"event","name":"Transfer","inputs":[{"name":"from","type":"address","indexed":true,"internalType":"address"},{"name":"to","type":"address","indexed":true,"internalType":"address"},{"name":"value","type":"uint256","indexed":false,"internalType":"uint256"}],"anonymous":false},{"type":"error","name":"ERC20InsufficientAllowance","inputs":[{"name":"spender","type":"address","internalType":"address"},{"name":"allowance","type":"uint256","internalType":"uint256"},{"name":"needed","type":"uint256","internalType":"uint256"}]},{"type":"error","name":"ERC20InsufficientBalance","inputs":[{"name":"sender","type":"address","internalType":"address"},{"name":"balance","type":"uint256","internalType":"uint256"},{"name":"needed","type":"uint256","internalType":"uint256"}]},{"type":"error","name":"ERC20InvalidApprover","inputs":[{"name":"approver","type":"address","internalType":"address"}]},{"type":"error","name":"ERC20InvalidReceiver","inputs":[{"name":"receiver","type":"address","internalType":"address"}]},{"type":"error","name":"ERC20InvalidSender","inputs":[{"name":"sender","type":"address","internalType":"address"}]},{"type":"error","name":"ERC20InvalidSpender","inputs":[{"name":"spender","type":"address","internalType":"address"}]},{"type":"error","name":"RoflOriginNotAuthorizedForApp","inputs":[]},{"type":"error","name":"SubcallError","inputs":[]},{"type":"error","name":"UnauthorizedOracle","inputs":[]}],"bytecode":{"object":"0x60806040525f6009555f600a5534801562000018575f80fd5b5060405162002132380380620021328339810160408190526200003b916200062a565b6040518060400160405280600d81526020016c54727573746c6573732042544360981b815250604051806040016040528060048152602001637442544360e01b81525081600390816200008f91906200071c565b5060046200009e82826200071c565b5050600680546001600160a81b031916605885901c17905550600580546001600160a01b0319166001600160a01b0383161790555f8080620000df62000114565b600b83905591945092509050600c620000f983826200071c565b50600d6200010882826200071c565b50505050505062000a94565b5f6060805f806200013b600360405180602001604052805f8152506200016a60201b60201c565b91509150806200014b90620007e4565b945081935062000161826200027760201b60201c565b92505050909192565b6060805f807301000000000000000000000000000000000000056001600160a01b03168686604051602001620001a29291906200082c565b60408051601f1981840301815290829052620001be9162000884565b5f60405180830381855afa9150503d805f8114620001f8576040519150601f19603f3d011682016040523d82523d5f602084013e620001fd565b606091505b509150915081620002545760405162461bcd60e51b815260206004820152601b60248201527f67656e207369676e696e67206b6579706169723a206661696c65640000000000604482015260640160405180910390fd5b808060200190518101906200026a91906200092f565b9350935050509250929050565b60605f620002bc6200028e84805160209091012090565b604051602001620002a191815260200190565b60408051601f19818403018152919052805160209091012090565b6040515f602082018190526001600160601b03198316602183015291925060350160408051808303601f19018152919052805160208201209091505f6200031082604051602001620002a191815260200190565b90505f8190505f84826040516020016200032c92919062000995565b60408051601f198184030181529190529050620003498162000355565b98975050505050505050565b60605f805b8351811015620003b257838181518110620003795762000379620009c5565b016020015160f81c6200038f83610100620009ed565b6200039b919062000a0d565b915080620003a98162000a23565b9150506200035a565b50604080516032808252606082019092525f916020820181803683370190505090505f5b821562000476575f620003eb603a8562000a52565b9050620003fa603a8562000a68565b93506040518060600160405280603a8152602001620020f8603a913981815181106200042a576200042a620009c5565b602001015160f81c60f81b8383815181106200044a576200044a620009c5565b60200101906001600160f81b03191690815f1a905350816200046c8162000a23565b92505050620003d6565b5f5b855181108015620004c25750858181518110620004995762000499620009c5565b01602001517fff0000000000000000000000000000000000000000000000000000000000000016155b1562000551576040518060600160405280603a8152602001620020f8603a91395f81518110620004f657620004f6620009c5565b602001015160f81c60f81b838381518110620005165762000516620009c5565b60200101906001600160f81b03191690815f1a90535081620005388162000a23565b9250508080620005489062000a23565b91505062000478565b505f816001600160401b038111156200056e576200056e6200067c565b6040519080825280601f01601f19166020018201604052801562000599576020820181803683370190505b5090505f5b8281101562000620578381620005b660018662000a7e565b620005c2919062000a7e565b81518110620005d557620005d5620009c5565b602001015160f81c60f81b828281518110620005f557620005f5620009c5565b60200101906001600160f81b03191690815f1a90535080620006178162000a23565b9150506200059e565b5095945050505050565b5f80604083850312156200063c575f80fd5b82516001600160581b03198116811462000654575f80fd5b60208401519092506001600160a01b038116811462000671575f80fd5b809150509250929050565b634e487b7160e01b5f52604160045260245ffd5b600181811c90821680620006a557607f821691505b602082108103620006c457634e487b7160e01b5f52602260045260245ffd5b50919050565b601f82111562000717575f81815260208120601f850160051c81016020861015620006f25750805b601f850160051c820191505b818110156200071357828155600101620006fe565b5050505b505050565b81516001600160401b038111156200073857620007386200067c565b620007508162000749845462000690565b84620006ca565b602080601f83116001811462000786575f84156200076e5750858301515b5f19600386901b1c1916600185901b17855562000713565b5f85815260208120601f198616915b82811015620007b65788860151825594840194600190910190840162000795565b5085821015620007d457878501515f19600388901b60f8161c191681555b5050505050600190811b01905550565b80516020808301519190811015620006c4575f1960209190910360031b1b16919050565b5f5b83811015620008245781810151838201526020016200080a565b50505f910152565b5f600984106200084a57634e487b7160e01b5f52602160045260245ffd5b8382526040602083015282518060408401526200086f81606085016020870162000808565b601f01601f1916919091016060019392505050565b5f82516200089781846020870162000808565b9190910192915050565b5f82601f830112620008b1575f80fd5b81516001600160401b0380821115620008ce57620008ce6200067c565b604051601f8301601f19908116603f01168101908282118183101715620008f957620008f96200067c565b8160405283815286602085880101111562000912575f80fd5b6200092584602083016020890162000808565b9695505050505050565b5f806040838503121562000941575f80fd5b82516001600160401b038082111562000958575f80fd5b6200096686838701620008a1565b935060208501519150808211156200097c575f80fd5b506200098b85828601620008a1565b9150509250929050565b5f8351620009a881846020880162000808565b6001600160e01b0319939093169190920190815260040192915050565b634e487b7160e01b5f52603260045260245ffd5b634e487b7160e01b5f52601160045260245ffd5b808202811582820484141762000a075762000a07620009d9565b92915050565b8082018082111562000a075762000a07620009d9565b5f6001820162000a375762000a37620009d9565b5060010190565b634e487b7160e01b5f52601260045260245ffd5b5f8262000a635762000a6362000a3e565b500690565b5f8262000a795762000a7962000a3e565b500490565b8181038181111562000a075762000a07620009d9565b6116568062000aa25f395ff3fe608060405234801561000f575f80fd5b506004361061016d575f3560e01c806370540ad4116100d95780637dc0d1d011610093578063a9059cbb1161006e578063a9059cbb14610332578063dd62ed3e14610345578063ed986f1d1461037d578063efae93df14610390575f80fd5b80637dc0d1d0146102f6578063951f55dd1461032157806395d89b411461032a575f80fd5b806370540ad41461027a57806370a082311461028d57806372c87076146102b55780637641e6f3146102c85780637651bc92146102db5780637adbf973146102e3575f80fd5b806323b872dd1161012a57806323b872dd14610212578063313ce567146102255780634c99007d1461023457806356dd46b21461023d5780635d12fd641461025057806363ffab3114610272575f80fd5b806306fdde0314610171578063095ea7b31461018f5780630b4f40b9146101b257806318160ddd146101c75780631e458bee146101d9578063223b7ea2146101ec575b5f80fd5b6101796103ba565b6040516101869190611038565b60405180910390f35b6101a261019d36600461106c565b61044a565b6040519015158152602001610186565b6101c56101c0366004611094565b610463565b005b6002545b604051908152602001610186565b6101c56101e73660046110ab565b6104b2565b6101ff6101fa366004611094565b610504565b60405161018697969594939291906110db565b6101a2610220366004611137565b61065a565b60405160128152602001610186565b6101cb60095481565b6101c561024b366004611217565b61067d565b6101a261025e366004611094565b60076020525f908152604090205460ff1681565b610179610732565b6101c561028836600461127d565b6107be565b6101cb61029b3660046112f6565b6001600160a01b03165f9081526020819052604090205490565b6101c56102c3366004611094565b610811565b6101c56102d636600461130f565b610859565b610179610a4c565b6101c56102f13660046112f6565b610a59565b600554610309906001600160a01b031681565b6040516001600160a01b039091168152602001610186565b6101cb600a5481565b610179610a8b565b6101a261034036600461106c565b610a9a565b6101cb610353366004611366565b6001600160a01b039182165f90815260016020908152604080832093909416825291909152205490565b6101c561038b366004611094565b610aa7565b60065461039d9060581b81565b6040516affffffffffffffffffffff199091168152602001610186565b6060600380546103c990611397565b80601f01602080910402602001604051908101604052809291908181526020018280546103f590611397565b80156104405780601f1061041757610100808354040283529160200191610440565b820191905f5260205f20905b81548152906001019060200180831161042357829003601f168201915b5050505050905090565b5f33610457818585610af2565b60019150505b92915050565b600a546104719060016113e3565b811461047b575f80fd5b6040518181527f55cd74b4a56c33b26dab31dd62856e2612c9eea6e5c8104c51ddb4092f003fd7906020015b60405180910390a150565b6005546001600160a01b031633146104dd5760405163db8d1fb760e01b815260040160405180910390fd5b5f818152600760205260409020805460ff191660011790556104ff8383610aff565b505050565b60086020525f908152604090208054600182015460028301546003840180546001600160a01b0390941694929391929161053d90611397565b80601f016020809104026020016040519081016040528092919081815260200182805461056990611397565b80156105b45780601f1061058b576101008083540402835291602001916105b4565b820191905f5260205f20905b81548152906001019060200180831161059757829003601f168201915b5050505050908060040180546105c990611397565b80601f01602080910402602001604051908101604052809291908181526020018280546105f590611397565b80156106405780601f1061061757610100808354040283529160200191610640565b820191905f5260205f20905b81548152906001019060200180831161062357829003601f168201915b50505050600583015460069093015491929160ff16905087565b5f33610667858285610b37565b610672858585610bb3565b506001949350505050565b5f8381526007602052604090205460ff16156106eb5760405162461bcd60e51b815260206004820152602260248201527f5472616e73616374696f6e206861736820616c7265616479207375626d697474604482015261195960f21b60648201526084015b60405180910390fd5b806001600160a01b0316837fa792f398aa31e5a8997596cc320ebeafe3832fcec677e79208d8bc2a8b3cef63846040516107259190611038565b60405180910390a3505050565b600c805461073f90611397565b80601f016020809104026020016040519081016040528092919081815260200182805461076b90611397565b80156107b65780601f1061078d576101008083540402835291602001916107b6565b820191905f5260205f20905b81548152906001019060200180831161079957829003601f168201915b505050505081565b6005546001600160a01b031633146107e95760405163db8d1fb760e01b815260040160405180910390fd5b50505f918252600860205260409091206005810191909155600601805460ff19166002179055565b600a5461081f9060016113e3565b8114610829575f80fd5b6040518181527f9e82575b9111faf857338929e8d783c1d947a26ba51ddf6b53bb54deb9bb2db6906020016104a7565b60405163321985ff60e11b815273__$c9d657f2108d760a18f50a12432e8cd649$__906364330bfe90610890908490600401611038565b602060405180830381865af41580156108ab573d5f803e3d5ffd5b505050506040513d601f19601f820116820180604052508101906108cf91906113f6565b61090d5760405162461bcd60e51b815260206004820152600f60248201526e696e76616c6964206164647265737360881b60448201526064016106e2565b60098054905f61091c83611415565b91905055506040518060e001604052806109333390565b6001600160a01b0390811682526020808301869052426040808501919091526060808501879052815180840183525f808252608087019190915260a08601819052600160c0909601869052600954815260088452829020865181546001600160a01b031916951694909417845591850151938301939093559183015160028201559082015160038201906109c7908261147a565b50608082015160048201906109dc908261147a565b5060a0820151600582015560c0909101516006909101805460ff191660ff909216919091179055610a0d3383610c10565b7fb90306ad06b2a6ff86ddc9327db583062895ef6540e62dc50add009db5b356eb600954604051610a4091815260200190565b60405180910390a15050565b600d805461073f90611397565b60065460581b610a6881610c44565b50600580546001600160a01b0319166001600160a01b0392909216919091179055565b6060600480546103c990611397565b5f33610457818585610bb3565b6005546001600160a01b03163314610ad25760405163db8d1fb760e01b815260040160405180910390fd5b5f818152600860205260409020600601805460ff19166003179055600a55565b6104ff8383836001610d2f565b6001600160a01b038216610b285760405163ec442f0560e01b81525f60048201526024016106e2565b610b335f8383610e01565b5050565b6001600160a01b038381165f908152600160209081526040808320938616835292905220545f19811015610bad5781811015610b9f57604051637dc7a0d960e11b81526001600160a01b038416600482015260248101829052604481018390526064016106e2565b610bad84848484035f610d2f565b50505050565b6001600160a01b038316610bdc57604051634b637e8f60e11b81525f60048201526024016106e2565b6001600160a01b038216610c055760405163ec442f0560e01b81525f60048201526024016106e2565b6104ff838383610e01565b6001600160a01b038216610c3957604051634b637e8f60e11b81525f60048201526024016106e2565b610b33825f83610e01565b5f80610cc26040518060400160405280601781526020017f726f666c2e4973417574686f72697a65644f726967696e00000000000000000081525084604051602001610cae9190605560f81b81526affffffffffffffffffffff1991909116600182015260160190565b604051602081830303815290604052610f1a565b915091508167ffffffffffffffff165f141580610ce157508051600114155b80610d115750805f81518110610cf957610cf9611536565b6020910101516001600160f81b03191660f560f81b14155b156104ff57604051636890282f60e01b815260040160405180910390fd5b6001600160a01b038416610d585760405163e602df0560e01b81525f60048201526024016106e2565b6001600160a01b038316610d8157604051634a1406b160e11b81525f60048201526024016106e2565b6001600160a01b038085165f9081526001602090815260408083209387168352929052208290558015610bad57826001600160a01b0316846001600160a01b03167f8c5be1e5ebec7d5bd14f71427d1e84f3dd0314c0f7b2291e5b200ac8c7c3b92584604051610df391815260200190565b60405180910390a350505050565b6001600160a01b038316610e2b578060025f828254610e2091906113e3565b90915550610e9b9050565b6001600160a01b0383165f9081526020819052604090205481811015610e7d5760405163391434e360e21b81526001600160a01b038516600482015260248101829052604481018390526064016106e2565b6001600160a01b0384165f9081526020819052604090209082900390555b6001600160a01b038216610eb757600280548290039055610ed5565b6001600160a01b0382165f9081526020819052604090208054820190555b816001600160a01b0316836001600160a01b03167fddf252ad1be2c89b69c2b068fc378daa952ba7f163c4a11628f55a4df523b3ef8360405161072591815260200190565b5f60605f807301000000000000000000000000000000000001036001600160a01b03168686604051602001610f5092919061154a565b60408051601f1981840301815290829052610f6a91611577565b5f60405180830381855afa9150503d805f8114610fa2576040519150601f19603f3d011682016040523d82523d5f602084013e610fa7565b606091505b509150915081610fca57604051631205d29f60e31b815260040160405180910390fd5b80806020019051810190610fde9190611592565b9097909650945050505050565b5f5b83811015611005578181015183820152602001610fed565b50505f910152565b5f8151808452611024816020860160208601610feb565b601f01601f19169290920160200192915050565b602081525f61104a602083018461100d565b9392505050565b80356001600160a01b0381168114611067575f80fd5b919050565b5f806040838503121561107d575f80fd5b61108683611051565b946020939093013593505050565b5f602082840312156110a4575f80fd5b5035919050565b5f805f606084860312156110bd575f80fd5b6110c684611051565b95602085013595506040909401359392505050565b60018060a01b038816815286602082015285604082015260e060608201525f61110760e083018761100d565b8281036080840152611119818761100d565b9150508360a083015260ff831660c083015298975050505050505050565b5f805f60608486031215611149575f80fd5b61115284611051565b925061116060208501611051565b9150604084013590509250925092565b634e487b7160e01b5f52604160045260245ffd5b604051601f8201601f1916810167ffffffffffffffff811182821017156111ad576111ad611170565b604052919050565b5f67ffffffffffffffff8211156111ce576111ce611170565b50601f01601f191660200190565b5f6111ee6111e9846111b5565b611184565b9050828152838383011115611201575f80fd5b828260208301375f602084830101529392505050565b5f805f60608486031215611229575f80fd5b83359250602084013567ffffffffffffffff811115611246575f80fd5b8401601f81018613611256575f80fd5b611265868235602084016111dc565b92505061127460408501611051565b90509250925092565b5f805f8060608587031215611290575f80fd5b8435935060208501359250604085013567ffffffffffffffff808211156112b5575f80fd5b818701915087601f8301126112c8575f80fd5b8135818111156112d6575f80fd5b8860208285010111156112e7575f80fd5b95989497505060200194505050565b5f60208284031215611306575f80fd5b61104a82611051565b5f8060408385031215611320575f80fd5b82359150602083013567ffffffffffffffff81111561133d575f80fd5b8301601f8101851361134d575f80fd5b61135c858235602084016111dc565b9150509250929050565b5f8060408385031215611377575f80fd5b61138083611051565b915061138e60208401611051565b90509250929050565b600181811c908216806113ab57607f821691505b6020821081036113c957634e487b7160e01b5f52602260045260245ffd5b50919050565b634e487b7160e01b5f52601160045260245ffd5b8082018082111561045d5761045d6113cf565b5f60208284031215611406575f80fd5b8151801515811461104a575f80fd5b5f60018201611426576114266113cf565b5060010190565b601f8211156104ff575f81815260208120601f850160051c810160208610156114535750805b601f850160051c820191505b818110156114725782815560010161145f565b505050505050565b815167ffffffffffffffff81111561149457611494611170565b6114a8816114a28454611397565b8461142d565b602080601f8311600181146114db575f84156114c45750858301515b5f19600386901b1c1916600185901b178555611472565b5f85815260208120601f198616915b82811015611509578886015182559484019460019091019084016114ea565b508582101561152657878501515f19600388901b60f8161c191681555b5050505050600190811b01905550565b634e487b7160e01b5f52603260045260245ffd5b604081525f61155c604083018561100d565b828103602084015261156e818561100d565b95945050505050565b5f8251611588818460208701610feb565b9190910192915050565b5f80604083850312156115a3575f80fd5b825167ffffffffffffffff80821682146115bb575f80fd5b6020850151919350808211156115cf575f80fd5b508301601f810185136115e0575f80fd5b80516115ee6111e9826111b5565b818152866020838501011115611602575f80fd5b611613826020830160208601610feb565b809350505050925092905056fea2646970667358221220ca175e7859784985a83aa7d4e6c41a82495c12fa9b20412f0d6ed438b51f6fd364736f6c6343000814003331323334353637383941424344454647484a4b4c4d4e505152535455565758595a6162636465666768696a6b6d6e6f707172737475767778797a","linkReferences":{"src/utils/BitcoinUtils.sol":{"BitcoinUtils":[{"start":4874,"length":20}]}}},"methodIdentifiers":{"allowance(address,address)":"dd62ed3e","approve(address,uint256)":"095ea7b3","balanceOf(address)":"70a08231","bitcoinAddress()":"7651bc92","burn(uint256,string)":"7641e6f3","burnCounter()":"4c99007d","burnData(uint256)":"223b7ea2","decimals()":"313ce567","generateBurnTransaction(uint256)":"72c87076","lastVerifiedBurn()":"951f55dd","mint(address,uint256,bytes32)":"1e458bee","name()":"06fdde03","oracle()":"7dc0d1d0","publicKey()":"63ffab31","roflAppID()":"efae93df","setOracle(address)":"7adbf973","signBurn(uint256,bytes32,bytes)":"70540ad4","submitMintTransactionProof(bytes32,bytes,address)":"56dd46b2","submittedTransactions(bytes32)":"5d12fd64","symbol()":"95d89b41","totalSupply()":"18160ddd","transfer(address,uint256)":"a9059cbb","transferFrom(address,address,uint256)":"23b872dd","validateBurn(uint256)":"ed986f1d","validateBurnTransaction(uint256)":"0b4f40b9"},"id":32}