{
  "_format": "hh-sol-artifact-1",
  "contractName": "TrustlessBTC",
  "sourceName": "contracts/tBTC.sol",
  "abi": [
    {
      "inputs": [
        {
          "internalType": "bytes21",
          "name": "inRoflAppID",
          "type": "bytes21"
        },
        {
          "internalType": "address",
          "name": "inOracle",
          "type": "address"
        },
        {
          "internalType": "string",
          "name": "domain",
          "type": "string"
        }
      ],
      "stateMutability": "nonpayable",
      "type": "constructor"
    },
    {
      "inputs": [],
      "name": "A13e_RevokedAuthToken",
      "type": "error"
    },
    {
      "inputs": [],
      "name": "BurnTransactionNotGenerated",
      "type": "error"
    },
    {
      "inputs": [],
      "name": "BurnTransactionNotSigned",
      "type": "error"
    },
    {
      "inputs": [],
      "name": "InvalidBitcoinAddress",
      "type": "error"
    },
    {
      "inputs": [],
      "name": "InvalidPrivateKey",
      "type": "error"
    },
    {
      "inputs": [],
      "name": "InvalidSignature",
      "type": "error"
    },
    {
      "inputs": [],
      "name": "KeyGenerationFailed",
      "type": "error"
    },
    {
      "inputs": [],
      "name": "KeysAlreadyGenerated",
      "type": "error"
    },
    {
      "inputs": [],
      "name": "RoflOriginNotAuthorizedForApp",
      "type": "error"
    },
    {
      "inputs": [],
      "name": "SiweAuth_AddressMismatch",
      "type": "error"
    },
    {
      "inputs": [],
      "name": "SiweAuth_ChainIdMismatch",
      "type": "error"
    },
    {
      "inputs": [],
      "name": "SiweAuth_DomainMismatch",
      "type": "error"
    },
    {
      "inputs": [],
      "name": "SiweAuth_Expired",
      "type": "error"
    },
    {
      "inputs": [],
      "name": "SiweAuth_NotBeforeInFuture",
      "type": "error"
    },
    {
      "inputs": [],
      "name": "SiweParser_InvalidAddressLength",
      "type": "error"
    },
    {
      "inputs": [],
      "name": "SiweParser_InvalidNonce",
      "type": "error"
    },
    {
      "inputs": [],
      "name": "SubcallError",
      "type": "error"
    },
    {
      "inputs": [],
      "name": "TransactionAlreadyProcessed",
      "type": "error"
    },
    {
      "inputs": [],
      "name": "UnauthorizedOracle",
      "type": "error"
    },
    {
      "inputs": [],
      "name": "WrongBurnId",
      "type": "error"
    },
    {
      "anonymous": false,
      "inputs": [
        {
          "indexed": true,
          "internalType": "address",
          "name": "owner",
          "type": "address"
        },
        {
          "indexed": true,
          "internalType": "address",
          "name": "spender",
          "type": "address"
        },
        {
          "indexed": false,
          "internalType": "uint256",
          "name": "value",
          "type": "uint256"
        }
      ],
      "name": "Approval",
      "type": "event"
    },
    {
      "anonymous": false,
      "inputs": [
        {
          "indexed": false,
          "internalType": "uint256",
          "name": "burnId",
          "type": "uint256"
        }
      ],
      "name": "BurnGenerateTransaction",
      "type": "event"
    },
    {
      "anonymous": false,
      "inputs": [
        {
          "indexed": false,
          "internalType": "uint256",
          "name": "burnId",
          "type": "uint256"
        },
        {
          "indexed": false,
          "internalType": "bytes",
          "name": "rawTx",
          "type": "bytes"
        }
      ],
      "name": "BurnSigned",
      "type": "event"
    },
    {
      "anonymous": false,
      "inputs": [
        {
          "indexed": false,
          "internalType": "uint256",
          "name": "burnId",
          "type": "uint256"
        }
      ],
      "name": "BurnValidateTransaction",
      "type": "event"
    },
    {
      "anonymous": false,
      "inputs": [
        {
          "indexed": false,
          "internalType": "uint256",
          "name": "burnId",
          "type": "uint256"
        }
      ],
      "name": "BurnValidated",
      "type": "event"
    },
    {
      "anonymous": false,
      "inputs": [
        {
          "indexed": false,
          "internalType": "bytes32",
          "name": "privateKey",
          "type": "bytes32"
        },
        {
          "indexed": false,
          "internalType": "bytes",
          "name": "publicKey",
          "type": "bytes"
        },
        {
          "indexed": false,
          "internalType": "string",
          "name": "bitcoinAddress",
          "type": "string"
        }
      ],
      "name": "KeysGenerated",
      "type": "event"
    },
    {
      "anonymous": false,
      "inputs": [
        {
          "indexed": true,
          "internalType": "bytes32",
          "name": "txHash",
          "type": "bytes32"
        },
        {
          "indexed": false,
          "internalType": "string",
          "name": "signature",
          "type": "string"
        },
        {
          "indexed": true,
          "internalType": "address",
          "name": "ethereumAddress",
          "type": "address"
        }
      ],
      "name": "TransactionProofSubmitted",
      "type": "event"
    },
    {
      "anonymous": false,
      "inputs": [
        {
          "indexed": true,
          "internalType": "address",
          "name": "from",
          "type": "address"
        },
        {
          "indexed": true,
          "internalType": "address",
          "name": "to",
          "type": "address"
        },
        {
          "indexed": false,
          "internalType": "uint256",
          "name": "value",
          "type": "uint256"
        }
      ],
      "name": "Transfer",
      "type": "event"
    },
    {
      "inputs": [
        {
          "internalType": "address",
          "name": "owner",
          "type": "address"
        },
        {
          "internalType": "address",
          "name": "spender",
          "type": "address"
        }
      ],
      "name": "allowance",
      "outputs": [
        {
          "internalType": "uint256",
          "name": "",
          "type": "uint256"
        }
      ],
      "stateMutability": "view",
      "type": "function"
    },
    {
      "inputs": [
        {
          "internalType": "address",
          "name": "spender",
          "type": "address"
        },
        {
          "internalType": "uint256",
          "name": "amount",
          "type": "uint256"
        }
      ],
      "name": "approve",
      "outputs": [
        {
          "internalType": "bool",
          "name": "",
          "type": "bool"
        }
      ],
      "stateMutability": "nonpayable",
      "type": "function"
    },
    {
      "inputs": [
        {
          "internalType": "address",
          "name": "account",
          "type": "address"
        }
      ],
      "name": "balanceOf",
      "outputs": [
        {
          "internalType": "uint256",
          "name": "",
          "type": "uint256"
        }
      ],
      "stateMutability": "view",
      "type": "function"
    },
    {
      "inputs": [],
      "name": "bitcoinAddress",
      "outputs": [
        {
          "internalType": "string",
          "name": "",
          "type": "string"
        }
      ],
      "stateMutability": "view",
      "type": "function"
    },
    {
      "inputs": [
        {
          "internalType": "uint256",
          "name": "amount",
          "type": "uint256"
        },
        {
          "internalType": "string",
          "name": "toBitcoinAddress",
          "type": "string"
        }
      ],
      "name": "burn",
      "outputs": [],
      "stateMutability": "nonpayable",
      "type": "function"
    },
    {
      "inputs": [],
      "name": "burnCounter",
      "outputs": [
        {
          "internalType": "uint256",
          "name": "",
          "type": "uint256"
        }
      ],
      "stateMutability": "view",
      "type": "function"
    },
    {
      "inputs": [
        {
          "internalType": "uint256",
          "name": "",
          "type": "uint256"
        }
      ],
      "name": "burnData",
      "outputs": [
        {
          "internalType": "address",
          "name": "user",
          "type": "address"
        },
        {
          "internalType": "uint256",
          "name": "amount",
          "type": "uint256"
        },
        {
          "internalType": "uint256",
          "name": "timestamp",
          "type": "uint256"
        },
        {
          "internalType": "string",
          "name": "bitcoinAddress",
          "type": "string"
        },
        {
          "internalType": "uint8",
          "name": "status",
          "type": "uint8"
        },
        {
          "internalType": "bytes32",
          "name": "transactionHash",
          "type": "bytes32"
        }
      ],
      "stateMutability": "view",
      "type": "function"
    },
    {
      "inputs": [],
      "name": "decimals",
      "outputs": [
        {
          "internalType": "uint8",
          "name": "",
          "type": "uint8"
        }
      ],
      "stateMutability": "view",
      "type": "function"
    },
    {
      "inputs": [
        {
          "internalType": "address",
          "name": "spender",
          "type": "address"
        },
        {
          "internalType": "uint256",
          "name": "subtractedValue",
          "type": "uint256"
        }
      ],
      "name": "decreaseAllowance",
      "outputs": [
        {
          "internalType": "bool",
          "name": "",
          "type": "bool"
        }
      ],
      "stateMutability": "nonpayable",
      "type": "function"
    },
    {
      "inputs": [],
      "name": "domain",
      "outputs": [
        {
          "internalType": "string",
          "name": "",
          "type": "string"
        }
      ],
      "stateMutability": "view",
      "type": "function"
    },
    {
      "inputs": [],
      "name": "generateKeys",
      "outputs": [],
      "stateMutability": "nonpayable",
      "type": "function"
    },
    {
      "inputs": [
        {
          "internalType": "address",
          "name": "spender",
          "type": "address"
        },
        {
          "internalType": "uint256",
          "name": "addedValue",
          "type": "uint256"
        }
      ],
      "name": "increaseAllowance",
      "outputs": [
        {
          "internalType": "bool",
          "name": "",
          "type": "bool"
        }
      ],
      "stateMutability": "nonpayable",
      "type": "function"
    },
    {
      "inputs": [],
      "name": "keysGenerated",
      "outputs": [
        {
          "internalType": "bool",
          "name": "",
          "type": "bool"
        }
      ],
      "stateMutability": "view",
      "type": "function"
    },
    {
      "inputs": [],
      "name": "lastVerifiedBurn",
      "outputs": [
        {
          "internalType": "uint256",
          "name": "",
          "type": "uint256"
        }
      ],
      "stateMutability": "view",
      "type": "function"
    },
    {
      "inputs": [
        {
          "internalType": "string",
          "name": "siweMsg",
          "type": "string"
        },
        {
          "components": [
            {
              "internalType": "bytes32",
              "name": "r",
              "type": "bytes32"
            },
            {
              "internalType": "bytes32",
              "name": "s",
              "type": "bytes32"
            },
            {
              "internalType": "uint256",
              "name": "v",
              "type": "uint256"
            }
          ],
          "internalType": "struct SignatureRSV",
          "name": "sig",
          "type": "tuple"
        }
      ],
      "name": "login",
      "outputs": [
        {
          "internalType": "bytes",
          "name": "",
          "type": "bytes"
        }
      ],
      "stateMutability": "view",
      "type": "function"
    },
    {
      "inputs": [
        {
          "internalType": "address",
          "name": "account",
          "type": "address"
        },
        {
          "internalType": "uint256",
          "name": "amount",
          "type": "uint256"
        },
        {
          "internalType": "bytes32",
          "name": "txHash",
          "type": "bytes32"
        }
      ],
      "name": "mint",
      "outputs": [],
      "stateMutability": "nonpayable",
      "type": "function"
    },
    {
      "inputs": [],
      "name": "name",
      "outputs": [
        {
          "internalType": "string",
          "name": "",
          "type": "string"
        }
      ],
      "stateMutability": "view",
      "type": "function"
    },
    {
      "inputs": [],
      "name": "oracle",
      "outputs": [
        {
          "internalType": "address",
          "name": "",
          "type": "address"
        }
      ],
      "stateMutability": "view",
      "type": "function"
    },
    {
      "inputs": [
        {
          "internalType": "bytes32",
          "name": "",
          "type": "bytes32"
        }
      ],
      "name": "processedMintTransactions",
      "outputs": [
        {
          "internalType": "bool",
          "name": "",
          "type": "bool"
        }
      ],
      "stateMutability": "view",
      "type": "function"
    },
    {
      "inputs": [],
      "name": "publicKey",
      "outputs": [
        {
          "internalType": "bytes",
          "name": "",
          "type": "bytes"
        }
      ],
      "stateMutability": "view",
      "type": "function"
    },
    {
      "inputs": [],
      "name": "requestCreateBurnBitcoinTransaction",
      "outputs": [],
      "stateMutability": "nonpayable",
      "type": "function"
    },
    {
      "inputs": [],
      "name": "requestValidateBurnBitcoinTransaction",
      "outputs": [],
      "stateMutability": "nonpayable",
      "type": "function"
    },
    {
      "inputs": [],
      "name": "roflAppID",
      "outputs": [
        {
          "internalType": "bytes21",
          "name": "",
          "type": "bytes21"
        }
      ],
      "stateMutability": "view",
      "type": "function"
    },
    {
      "inputs": [
        {
          "internalType": "address",
          "name": "addr",
          "type": "address"
        }
      ],
      "name": "setOracle",
      "outputs": [],
      "stateMutability": "nonpayable",
      "type": "function"
    },
    {
      "inputs": [
        {
          "internalType": "bytes32",
          "name": "msgHash",
          "type": "bytes32"
        },
        {
          "internalType": "bytes",
          "name": "token",
          "type": "bytes"
        }
      ],
      "name": "sign",
      "outputs": [
        {
          "internalType": "uint256",
          "name": "nonce",
          "type": "uint256"
        },
        {
          "internalType": "uint256",
          "name": "r",
          "type": "uint256"
        },
        {
          "internalType": "uint256",
          "name": "s",
          "type": "uint256"
        },
        {
          "internalType": "uint8",
          "name": "v",
          "type": "uint8"
        }
      ],
      "stateMutability": "view",
      "type": "function"
    },
    {
      "inputs": [
        {
          "internalType": "uint256",
          "name": "burnId",
          "type": "uint256"
        },
        {
          "internalType": "bytes",
          "name": "rawTx",
          "type": "bytes"
        },
        {
          "internalType": "bytes32",
          "name": "transactionHash",
          "type": "bytes32"
        }
      ],
      "name": "signBurn",
      "outputs": [],
      "stateMutability": "nonpayable",
      "type": "function"
    },
    {
      "inputs": [
        {
          "internalType": "bytes32",
          "name": "txHash",
          "type": "bytes32"
        },
        {
          "internalType": "string",
          "name": "signature",
          "type": "string"
        },
        {
          "internalType": "address",
          "name": "ethereumAddress",
          "type": "address"
        }
      ],
      "name": "submitMintTransactionProof",
      "outputs": [],
      "stateMutability": "nonpayable",
      "type": "function"
    },
    {
      "inputs": [],
      "name": "symbol",
      "outputs": [
        {
          "internalType": "string",
          "name": "",
          "type": "string"
        }
      ],
      "stateMutability": "view",
      "type": "function"
    },
    {
      "inputs": [],
      "name": "totalSupply",
      "outputs": [
        {
          "internalType": "uint256",
          "name": "",
          "type": "uint256"
        }
      ],
      "stateMutability": "view",
      "type": "function"
    },
    {
      "inputs": [
        {
          "internalType": "address",
          "name": "to",
          "type": "address"
        },
        {
          "internalType": "uint256",
          "name": "amount",
          "type": "uint256"
        }
      ],
      "name": "transfer",
      "outputs": [
        {
          "internalType": "bool",
          "name": "",
          "type": "bool"
        }
      ],
      "stateMutability": "nonpayable",
      "type": "function"
    },
    {
      "inputs": [
        {
          "internalType": "address",
          "name": "from",
          "type": "address"
        },
        {
          "internalType": "address",
          "name": "to",
          "type": "address"
        },
        {
          "internalType": "uint256",
          "name": "amount",
          "type": "uint256"
        }
      ],
      "name": "transferFrom",
      "outputs": [
        {
          "internalType": "bool",
          "name": "",
          "type": "bool"
        }
      ],
      "stateMutability": "nonpayable",
      "type": "function"
    },
    {
      "inputs": [
        {
          "internalType": "uint256",
          "name": "burnId",
          "type": "uint256"
        }
      ],
      "name": "validateBurn",
      "outputs": [],
      "stateMutability": "nonpayable",
      "type": "function"
    }
  ],
  "bytecode": "0x60806040526000600c556000600d553480156200001b57600080fd5b5060405162005166380380620051668339810160408190526200003e9162000325565b604080518082018252600d81526c54727573746c6573732042544360981b6020808301918252835180850190945260048452637442544360e01b90840152815184939162000090916003919062000236565b508051620000a690600490602084019062000236565b505050620000d06020604051806020016040528060008152506200014160201b620011541760201c565b620000db9062000421565b6007558051620000f390600690602084019062000236565b5050600980546001600160a81b03191660589490941c93909317909255600880546001600160a01b0319166001600160a01b0392909216919091179055506011805460ff19169055620004d9565b60606000807301000000000000000000000000000000000000016001600160a01b031685856040516020016200017992919062000449565b60408051601f1981840301815290829052620001959162000485565b600060405180830381855afa9150503d8060008114620001d2576040519150601f19603f3d011682016040523d82523d6000602084013e620001d7565b606091505b5091509150816200022e5760405162461bcd60e51b815260206004820152601360248201527f72616e646f6d42797465733a206661696c656400000000000000000000000000604482015260640160405180910390fd5b949350505050565b8280546200024490620004a3565b90600052602060002090601f016020900481019282620002685760008555620002b3565b82601f106200028357805160ff1916838001178555620002b3565b82800160010185558215620002b3579182015b82811115620002b357825182559160200191906001019062000296565b50620002c1929150620002c5565b5090565b5b80821115620002c15760008155600101620002c6565b634e487b7160e01b600052604160045260246000fd5b60005b838110156200030f578181015183820152602001620002f5565b838111156200031f576000848401525b50505050565b6000806000606084860312156200033b57600080fd5b83516001600160581b0319811681146200035457600080fd5b60208501519093506001600160a01b03811681146200037257600080fd5b60408501519092506001600160401b03808211156200039057600080fd5b818601915086601f830112620003a557600080fd5b815181811115620003ba57620003ba620002dc565b604051601f8201601f19908116603f01168101908382118183101715620003e557620003e5620002dc565b81604052828152896020848701011115620003ff57600080fd5b62000412836020830160208801620002f2565b80955050505050509250925092565b8051602080830151919081101562000443576000198160200360031b1b821691505b50919050565b828152604060208201526000825180604084015262000470816060850160208701620002f2565b601f01601f1916919091016060019392505050565b6000825162000499818460208701620002f2565b9190910192915050565b600181811c90821680620004b857607f821691505b6020821081036200044357634e487b7160e01b600052602260045260246000fd5b614c7d80620004e96000396000f3fe608060405234801561001057600080fd5b50600436106101f05760003560e01c80637651bc921161010f5780639cdbb130116100a2578063c2fb26a611610071578063c2fb26a614610434578063dd62ed3e1461043c578063ed986f1d1461044f578063efae93df1461046257600080fd5b80639cdbb130146103f9578063a457c2d714610401578063a9059cbb14610414578063b7982da71461042757600080fd5b80637dc0d1d0116100de5780637dc0d1d0146103aa5780637f476b6f146103d5578063951f55dd146103e857806395d89b41146103f157600080fd5b80637651bc9214610374578063776eaf881461037c5780637adbf973146103845780637d5c09001461039757600080fd5b8063365e250b116101875780635b9d136c116101565780635b9d136c1461032857806363ffab311461033057806370a08231146103385780637641e6f31461036157600080fd5b8063365e250b146102c357806339509351146102f95780633f6ba50e1461030c5780634c99007d1461031f57600080fd5b80631e458bee116101c35780631e458bee14610267578063223b7ea21461027c57806323b872dd146102a1578063313ce567146102b457600080fd5b806305bc9aeb146101f557806306fdde031461022d578063095ea7b31461024257806318160ddd14610255575b600080fd5b610218610203366004613f5a565b600a6020526000908152604090205460ff1681565b60405190151581526020015b60405180910390f35b61023561048c565b6040516102249190613fcb565b610218610250366004613ff6565b61051e565b6002545b604051908152602001610224565b61027a610275366004614022565b610536565b005b61028f61028a366004613f5a565b6105b9565b60405161022496959493929190614057565b6102186102af36600461409c565b610686565b60405160088152602001610224565b6102d66102d13660046141b0565b6106ac565b6040805194855260208501939093529183015260ff166060820152608001610224565b610218610307366004613ff6565b610729565b61027a61031a366004614252565b61074b565b610259600c5481565b61027a610810565b610235610903565b6102596103463660046142a4565b6001600160a01b031660009081526020819052604090205490565b61027a61036f3660046142e1565b610991565b610235610ad8565b61027a610ae5565b61027a6103923660046142a4565b610b65565b61027a6103a536600461431d565b610b97565b6008546103bd906001600160a01b031681565b6040516001600160a01b039091168152602001610224565b6102356103e3366004614377565b610c0e565b610259600d5481565b610235610f19565b61027a610f28565b61021861040f366004613ff6565b610fa1565b610218610422366004613ff6565b61102c565b6011546102189060ff1681565b61023561103a565b61025961044a3660046143d5565b611049565b61027a61045d366004613f5a565b611074565b60095461046f9060581b81565b6040516affffffffffffffffffffff199091168152602001610224565b60606003805461049b9061440e565b80601f01602080910402602001604051908101604052809291908181526020018280546104c79061440e565b80156105145780601f106104e957610100808354040283529160200191610514565b820191906000526020600020905b8154815290600101906020018083116104f757829003601f168201915b5050505050905090565b60003361052c818585611227565b5060019392505050565b6008546001600160a01b031633146105615760405163db8d1fb760e01b815260040160405180910390fd5b6000818152600a602052604090205460ff16156105915760405163eb4156ad60e01b815260040160405180910390fd5b6000818152600a60205260409020805460ff191660011790556105b48383611343565b505050565b600b6020526000908152604090208054600182015460028301546003840180546001600160a01b039094169492939192916105f39061440e565b80601f016020809104026020016040519081016040528092919081815260200182805461061f9061440e565b801561066c5780601f106106415761010080835404028352916020019161066c565b820191906000526020600020905b81548152906001019060200180831161064f57829003601f168201915b505050506004830154600590930154919260ff1691905086565b600033610694858285611402565b61069f85858561147c565b60019150505b9392505050565b60085460009081908190819085906001600160a01b031633148015906106ee57506008546001600160a01b03166106e282611620565b6001600160a01b031614155b1561070c5760405163db8d1fb760e01b815260040160405180910390fd5b610718600e5488611688565b929a91995097509095509350505050565b60003361052c81858561073c8383611049565b6107469190614458565b611227565b6008546001600160a01b031633146107765760405163db8d1fb760e01b815260040160405180910390fd5b6000848152600b602052604090206004015460ff166001146107ab57604051634066206560e11b815260040160405180910390fd5b6000848152600b60205260409081902060048101805460ff19166002179055600501829055517fe1c6c2a8c203154ad099381869b466cefe62229bea109e8437d9db77bb7ca1ac9061080290869086908690614470565b60405180910390a150505050565b60115460ff161561083457604051638bc2607960e01b815260040160405180910390fd5b600080600061084161195b565b9194509250905082610866576040516336f3aa6f60e21b815260040160405180910390fd5b8151600003610888576040516336f3aa6f60e21b815260040160405180910390fd5b600e83905581516108a090600f906020850190613e00565b5080516108b4906010906020840190613e00565b506011805460ff191660011790556040517f5115bb2b6499674f83ba12d4cbda8520cb6c66a33b055030511fe09cc54a5483906108f6908590859085906144a6565b60405180910390a1505050565b600f80546109109061440e565b80601f016020809104026020016040519081016040528092919081815260200182805461093c9061440e565b80156109895780601f1061095e57610100808354040283529160200191610989565b820191906000526020600020905b81548152906001019060200180831161096c57829003601f168201915b505050505081565b61099a81611995565b6109b75760405163fa32f46360e01b815260040160405180910390fd5b600c80549060006109c7836144d1565b91905055506040518060c001604052806109de3390565b6001600160a01b0390811682526020808301869052426040808501919091526060808501879052600160808601819052600060a0909601869052600c548652600b845294829020865181546001600160a01b0319169516949094178455858301519484019490945584015160028301559183015180519192610a6892600385019290910190613e00565b50608082015160048201805460ff191660ff90921691909117905560a090910151600590910155610a993383611b85565b7f9e82575b9111faf857338929e8d783c1d947a26ba51ddf6b53bb54deb9bb2db6600c54604051610acc91815260200190565b60405180910390a15050565b601080546109109061440e565b6000600d546001610af69190614458565b6000818152600b602052604090206004015490915060ff16600114610b2e57604051634066206560e11b815260040160405180910390fd5b6040518181527f9e82575b9111faf857338929e8d783c1d947a26ba51ddf6b53bb54deb9bb2db6906020015b60405180910390a150565b60095460581b610b7481611cb7565b50600880546001600160a01b0319166001600160a01b0392909216919091179055565b6000838152600a602052604090205460ff1615610bc75760405163eb4156ad60e01b815260040160405180910390fd5b806001600160a01b0316837f7837b147fa4937c358ad24213e667ebee6a1500caf7d6f10b926cd9186cdaff284604051610c019190613fcb565b60405180910390a3505050565b6060610c18613e84565b6000610c2385611da4565b8686604051602001610c37939291906144ea565b60408051601f19818403018152828252805160208083019190912060008086528583018086529190915260ff89850135169385019390935287356060850152870135608084015292509060019060a0016020604051602081039080840390855afa158015610ca9573d6000803e3d6000fd5b5050604051601f1901516001600160a01b0381166020860152915060009050610cd28888611e36565b9050468160a0015114610cf85760405163362c833760e01b815260040160405180910390fd5b6006604051610d07919061453e565b604051809103902081600001518051906020012014610d395760405163283d62bd60e01b815260040160405180910390fd5b8051845260208101516001600160a01b03838116911614610d6d576040516305cc02e160e01b815260040160405180910390fd5b6101208101515115801590610d8f5750610d8b81610120015161229d565b4211155b15610dad5760405163299d02f160e01b815260040160405180910390fd5b6101008101515115610dd4576000610dc982610100015161229d565b604086015250610de7565b610de16201518042614458565b60408501525b83604001514210610e0b57604051630b17115560e41b815260040160405180910390fd5b60408101516060850152610160810151516001600160401b03811115610e3357610e336140dd565b604051908082528060200260200182016040528015610e6657816020015b6060815260200190600190039081610e515790505b50608085015260005b81610160015151811015610ed0578161016001518181518110610e9457610e946145d9565b602002602001015185608001518281518110610eb257610eb26145d9565b60200260200101819052508080610ec8906144d1565b915050610e6f565b506000610f0c6007546000801b87604051602001610eee91906145ef565b60408051601f19818403018152602083019091526000825290612312565b9998505050505050505050565b60606004805461049b9061440e565b6000600d546001610f399190614458565b6000818152600b602052604090206004015490915060ff16600214610f715760405163291fa69560e11b815260040160405180910390fd5b6040518181527f55cd74b4a56c33b26dab31dd62856e2612c9eea6e5c8104c51ddb4092f003fd790602001610b5a565b60003381610faf8286611049565b9050838110156110145760405162461bcd60e51b815260206004820152602560248201527f45524332303a2064656372656173656420616c6c6f77616e63652062656c6f77604482015264207a65726f60d81b60648201526084015b60405180910390fd5b6110218286868403611227565b506001949350505050565b60003361052c81858561147c565b60606006805461049b9061440e565b6001600160a01b03918216600090815260016020908152604080832093909416825291909152205490565b6008546001600160a01b0316331461109f5760405163db8d1fb760e01b815260040160405180910390fd5b600d546110ad906001614458565b81146110cc57604051633cd5505360e21b815260040160405180910390fd5b6000818152600b602052604090206004015460ff166002146111015760405163291fa69560e11b815260040160405180910390fd5b6000818152600b602052604090819020600401805460ff19166003179055600d829055517f3b6b257ac74b84b471cfde2127a232baabeb4df267da1f2112c46e8b37e2eb1a90610b5a9083815260200190565b60606000806001600160981b016001600160a01b0316858560405160200161117d9291906146a9565b60408051601f1981840301815290829052611197916146c2565b600060405180830381855afa9150503d80600081146111d2576040519150601f19603f3d011682016040523d82523d6000602084013e6111d7565b606091505b50915091508161121f5760405162461bcd60e51b81526020600482015260136024820152721c985b991bdb509e5d195cce8819985a5b1959606a1b604482015260640161100b565b949350505050565b6001600160a01b0383166112895760405162461bcd60e51b8152602060048201526024808201527f45524332303a20617070726f76652066726f6d20746865207a65726f206164646044820152637265737360e01b606482015260840161100b565b6001600160a01b0382166112ea5760405162461bcd60e51b815260206004820152602260248201527f45524332303a20617070726f766520746f20746865207a65726f206164647265604482015261737360f01b606482015260840161100b565b6001600160a01b0383811660008181526001602090815260408083209487168084529482529182902085905590518481527f8c5be1e5ebec7d5bd14f71427d1e84f3dd0314c0f7b2291e5b200ac8c7c3b9259101610c01565b6001600160a01b0382166113995760405162461bcd60e51b815260206004820152601f60248201527f45524332303a206d696e7420746f20746865207a65726f206164647265737300604482015260640161100b565b80600260008282546113ab9190614458565b90915550506001600160a01b038216600081815260208181526040808320805486019055518481527fddf252ad1be2c89b69c2b068fc378daa952ba7f163c4a11628f55a4df523b3ef910160405180910390a35050565b600061140e8484611049565b9050600019811461147657818110156114695760405162461bcd60e51b815260206004820152601d60248201527f45524332303a20696e73756666696369656e7420616c6c6f77616e6365000000604482015260640161100b565b6114768484848403611227565b50505050565b6001600160a01b0383166114e05760405162461bcd60e51b815260206004820152602560248201527f45524332303a207472616e736665722066726f6d20746865207a65726f206164604482015264647265737360d81b606482015260840161100b565b6001600160a01b0382166115425760405162461bcd60e51b815260206004820152602360248201527f45524332303a207472616e7366657220746f20746865207a65726f206164647260448201526265737360e81b606482015260840161100b565b6001600160a01b038316600090815260208190526040902054818110156115ba5760405162461bcd60e51b815260206004820152602660248201527f45524332303a207472616e7366657220616d6f756e7420657863656564732062604482015265616c616e636560d01b606482015260840161100b565b6001600160a01b03848116600081815260208181526040808320878703905593871680835291849020805487019055925185815290927fddf252ad1be2c89b69c2b068fc378daa952ba7f163c4a11628f55a4df523b3ef910160405180910390a3611476565b8051602080830191909120600090815260059091526040812054829060ff161561165d576040516313d4cf0960e31b815260040160405180910390fd5b825160000361166f5760009150611682565b600061167a846123e7565b602001519250505b50919050565b6000808080858015806116ad575070014551231950b75fc4402da1732fc9bebe198110155b156116cb57604051633a98faef60e21b815260040160405180910390fd5b60405163c8db7a0560e01b8152600481018890526024810187905273__$595d719bf3ea57f15671819786dbba407f$__9063c8db7a0590604401602060405180830381865af4158015611722573d6000803e3d6000fd5b505050506040513d601f19601f8201168201806040525081019061174691906146de565b9450611765600170014551231950b75fc4402da1732fc9bebe196146f7565b61176f9086614724565b61177a906001614458565b604051634f08f86b60e11b81526004810182905290955060009073__$4b6656ff4d44dcda56160d380fe9702bb7$__90639e11f0d6906024016040805180830381865af41580156117cf573d6000803e3d6000fd5b505050506040513d601f19601f820116820180604052508101906117f39190614738565b50905061181270014551231950b75fc4402da1732fc9bebe1982614724565b6040516365232f3760e11b81526004810188905270014551231950b75fc4402da1732fc9bebe19602482015290955060009073__$4b6656ff4d44dcda56160d380fe9702bb7$__9063ca465e6e90604401602060405180830381865af4158015611880573d6000803e3d6000fd5b505050506040513d601f19601f820116820180604052508101906118a491906146de565b905070014551231950b75fc4402da1732fc9bebe198070014551231950b75fc4402da1732fc9bebe198589098a08820994506118f3600270014551231950b75fc4402da1732fc9bebe1961475c565b851115611921576119168570014551231950b75fc4402da1732fc9bebe196146f7565b945060019350611926565b600093505b851580611931575084155b1561194f57604051638baa579f60e01b815260040160405180910390fd5b50505092959194509250565b6000606080611968612491565b9250611973836124ec565b915060006119828360016125e0565b905061198d816127db565b915050909192565b80516000908290601a8110806119ab5750605a81115b156119ba575060009392505050565b816000815181106119cd576119cd6145d9565b6020910101516001600160f81b031916603160f81b1480611a135750816000815181106119fc576119fc6145d9565b6020910101516001600160f81b031916606d60f81b145b80611a43575081600081518110611a2c57611a2c6145d9565b6020910101516001600160f81b031916603760f91b145b15611a515761121f82612b08565b81600081518110611a6457611a646145d9565b6020910101516001600160f81b031916603160f91b148015611aab575081600181518110611a9457611a946145d9565b6020910101516001600160f81b031916606360f81b145b8015611adc575081600281518110611ac557611ac56145d9565b6020910101516001600160f81b031916603160f81b145b80611b6d575081600081518110611af557611af56145d9565b6020910101516001600160f81b031916601d60fa1b148015611b3c575081600181518110611b2557611b256145d9565b6020910101516001600160f81b031916603160f91b145b8015611b6d575081600281518110611b5657611b566145d9565b6020910101516001600160f81b031916603160f81b145b15611b7b5761121f82612e61565b5060009392505050565b6001600160a01b038216611be55760405162461bcd60e51b815260206004820152602160248201527f45524332303a206275726e2066726f6d20746865207a65726f206164647265736044820152607360f81b606482015260840161100b565b6001600160a01b03821660009081526020819052604090205481811015611c595760405162461bcd60e51b815260206004820152602260248201527f45524332303a206275726e20616d6f756e7420657863656564732062616c616e604482015261636560f01b606482015260840161100b565b6001600160a01b0383166000818152602081815260408083208686039055600280548790039055518581529192917fddf252ad1be2c89b69c2b068fc378daa952ba7f163c4a11628f55a4df523b3ef910160405180910390a3505050565b600080611d366040518060400160405280601781526020017f726f666c2e4973417574686f72697a65644f726967696e00000000000000000081525084604051602001611d229190605560f81b81526affffffffffffffffffffff1991909116600182015260160190565b60405160208183030381529060405261311e565b91509150816001600160401b03166000141580611d5557508051600114155b80611d86575080600081518110611d6e57611d6e6145d9565b6020910101516001600160f81b03191660f560f81b14155b156105b457604051636890282f60e01b815260040160405180910390fd5b60606000611db1836131f4565b60010190506000816001600160401b03811115611dd057611dd06140dd565b6040519080825280601f01601f191660200182016040528015611dfa576020820181803683370190505b5090508181016020015b600019016f181899199a1a9b1b9c1cb0b131b232b360811b600a86061a8153600a8504945084611e0457509392505050565b611e3e613ebc565b611e46613ebc565b60005b83811015611ed757848482818110611e6357611e636145d9565b909101356001600160f81b031916600160fd1b039050611ec557611ebe85858080601f016020809104026020016040519081016040528093929190818152602001838380828437600092018290525092508591506132cc9050565b8252611ed7565b80611ecf816144d1565b915050611e49565b611ee2603282614458565b9050611f49611f4486868080601f016020809104026020016040519081016040528093929190818152602001838380828437600092019190915250611f2e925060029150869050614458565b935083611f3c602882614458565b9450846132cc565b6133a2565b6001600160a01b03166020830152611f62600282614458565b90508381108015611f9c5750848482818110611f8057611f806145d9565b9050013560f81c60f81b6001600160f81b031916600560f91b14155b1561204557805b8481101561204357858582818110611fbd57611fbd6145d9565b909101356001600160f81b031916600560f91b0390506120315761201a86868080601f0160208091040260200160405190810160405280939291908181526020018383808284376000920191909152508692508591506132cc9050565b604084015261202a816001614458565b9150612043565b8061203b816144d1565b915050611fa3565b505b8061204f816144d1565b91505061207985856040518060400160405280600381526020016255524960e81b815250846134dd565b8360600181935082905250506120b08585604051806040016040528060078152602001662b32b939b4b7b760c91b815250846134dd565b83608001819350829052505060606120ea86866040518060400160405280600881526020016710da185a5b88125160c21b815250856134dd565b925090506120f7816136e7565b60a08401526040805180820190915260058152644e6f6e636560d81b60208201526121269087908790856134dd565b60c0850182905290519092506008111561215357604051632d2f00c360e21b815260040160405180910390fd5b612180868660405180604001604052806009815260200168125cdcdd595908105d60ba1b815250856134dd565b8460e00181945082905250506121bf86866040518060400160405280600f81526020016e45787069726174696f6e2054696d6560881b815250856134dd565b846101000181945082905250506121fa86866040518060400160405280600a8152602001694e6f74204265666f726560b01b815250856134dd565b8461012001819450829052505061223586866040518060400160405280600a81526020016914995c5d595cdd08125160b21b815250856134dd565b8461014001819450829052505060006122718787604051806040016040528060098152602001685265736f757263657360b81b815250866134dd565b9150508281146122925761228687878361374b565b61016086019190915292505b509195945050505050565b600061230c6122b76122b284600060046132cc565b6136e7565b6122c76122b285600560076132cc565b6122d76122b2866008600a6132cc565b6122e76122b287600b600d6132cc565b6122f76122b288600e60106132cc565b6123076122b289601160136132cc565b613a3b565b92915050565b60606000806003600160981b016001600160a01b03168787878760405160200161233f9493929190614770565b60408051601f1981840301815290829052612359916146c2565b600060405180830381855afa9150503d8060008114612394576040519150601f19603f3d011682016040523d82523d6000602084013e612399565b606091505b5091509150816123dd5760405162461bcd60e51b815260206004820152600f60248201526e195b98dc9e5c1d0e8819985a5b1959608a1b604482015260640161100b565b9695505050505050565b6123ef613e84565b60006124116007546000801b8560405180602001604052806000815250613bf2565b905060008180602001905181019061242991906148aa565b9050600660405161243a919061453e565b60405180910390208160000151805190602001201461246c5760405163283d62bd60e01b815260040160405180910390fd5b42816040015110156106a557604051630b17115560e41b815260040160405180910390fd5b6000806124ae602060405180602001604052806000815250611154565b8051602090910120905060006124d7600170014551231950b75fc4402da1732fc9bebe196146f7565b6124e19083614724565b6106a5906001614458565b60608180158061250e575070014551231950b75fc4402da1732fc9bebe198110155b1561252c57604051633a98faef60e21b815260040160405180910390fd5b60405163bc9e2bcf60e01b815260048101829052600090819073__$4b6656ff4d44dcda56160d380fe9702bb7$__9063bc9e2bcf906024016040805180830381865af4158015612580573d6000803e3d6000fd5b505050506040513d601f19601f820116820180604052508101906125a49190614738565b604051600160fa1b6020820152602181018390526041810182905291935091506061016040516020818303038152906040529350505050919050565b6060600060036002856040516125f691906146c2565b602060405180830381855afa158015612613573d6000803e3d6000fd5b5050506040513d601f19601f8201168201806040525081019061263691906146de565b60405160200161264891815260200190565b60408051601f1981840301815290829052612662916146c2565b602060405180830381855afa15801561267f573d6000803e3d6000fd5b5050506040515160601b905060008361269957600061269f565b606f60f81b5b6040516001600160f81b0319821660208201526bffffffffffffffffffffffff1984166021820152909150600090603501604051602081830303815290604052905060006002826040516126f391906146c2565b602060405180830381855afa158015612710573d6000803e3d6000fd5b5050506040513d601f19601f8201168201806040525081019061273391906146de565b9050600060028260405160200161274c91815260200190565b60408051601f1981840301815290829052612766916146c2565b602060405180830381855afa158015612783573d6000803e3d6000fd5b5050506040513d601f19601f820116820180604052508101906127a691906146de565b60405190915081906127be9085908390602001614979565b604051602081830303815290604052965050505050505092915050565b606060006040518060600160405280603a8152602001614c0e603a9139905060008351600261280a91906149a8565b6001600160401b03811115612821576128216140dd565b60405190808252806020026020018201604052801561284a578160200160208202803683370190505b509050600160005b855181101561296157600086828151811061286f5761286f6145d9565b016020015160f81c905060005b838110156128fe57848181518110612896576128966145d9565b60200260200101516101006128ab91906149a8565b6128b59083614458565b91506128c2603a83614724565b8582815181106128d4576128d46145d9565b60209081029190910101526128ea603a8361475c565b9150806128f6816144d1565b91505061287c565b505b801561294e57612911603a82614724565b848481518110612923576129236145d9565b602090810291909101015282612938816144d1565b93506129479050603a8261475c565b9050612900565b5080612959816144d1565b915050612852565b5060005b8551811080156129935750858181518110612982576129826145d9565b01602001516001600160f81b031916155b156129aa57806129a2816144d1565b915050612965565b60006129b68284614458565b6001600160401b038111156129cd576129cd6140dd565b6040519080825280601f01601f1916602001820160405280156129f7576020820181803683370190505b50905060005b82811015612a5e5785600081518110612a1857612a186145d9565b602001015160f81c60f81b828281518110612a3557612a356145d9565b60200101906001600160f81b031916908160001a90535080612a56816144d1565b9150506129fd565b5060005b83811015612afd57858582612a786001886146f7565b612a8291906146f7565b81518110612a9257612a926145d9565b602002602001015181518110612aaa57612aaa6145d9565b01602001516001600160f81b03191682612ac48386614458565b81518110612ad457612ad46145d9565b60200101906001600160f81b031916908160001a90535080612af5816144d1565b915050612a62565b509695505050505050565b6000806040518060600160405280603a8152602001614c0e603a913990506000805b8451811015612be957603a60005b8451811015612ba857848181518110612b5357612b536145d9565b602001015160f81c60f81b6001600160f81b031916878481518110612b7a57612b7a6145d9565b01602001516001600160f81b03191603612b9657809150612ba8565b80612ba0816144d1565b915050612b38565b5080603a03612bbd5750600095945050505050565b80612bc984603a6149a8565b612bd39190614458565b9250508080612be1906144d1565b915050612b2a565b506040805160198082528183019092526000916020820181803683370190505090508160005b6019811015612c73576001600160f81b031960f883901b1683612c338360186146f7565b81518110612c4357612c436145d9565b60200101906001600160f81b031916908160001a90535060089190911c9080612c6b816144d1565b915050612c0f565b508015612c865750600095945050505050565b60408051601580825281830190925260009160208201818036833701905050905060005b6015811015612d0b57838181518110612cc557612cc56145d9565b602001015160f81c60f81b828281518110612ce257612ce26145d9565b60200101906001600160f81b031916908160001a90535080612d03816144d1565b915050612caa565b506000600282604051612d1e91906146c2565b602060405180830381855afa158015612d3b573d6000803e3d6000fd5b5050506040513d601f19601f82011682018060405250810190612d5e91906146de565b90506000600282604051602001612d7791815260200190565b60408051601f1981840301815290829052612d91916146c2565b602060405180830381855afa158015612dae573d6000803e3d6000fd5b5050506040513d601f19601f82011682018060405250810190612dd191906146de565b905060005b6004811015612e5157818160208110612df157612df16145d9565b1a60f81b6001600160f81b03191686612e0b836015614458565b81518110612e1b57612e1b6145d9565b01602001516001600160f81b03191614612e3f575060009998505050505050505050565b80612e49816144d1565b915050612dd6565b5060019998505050505050505050565b6000805b8251811015612ee657604160f81b838281518110612e8557612e856145d9565b01602001516001600160f81b03191610801590612ec65750602d60f91b838281518110612eb457612eb46145d9565b01602001516001600160f81b03191611155b15612ed45750600092915050565b80612ede816144d1565b915050612e65565b5060001960005b8351811015612f3757838181518110612f0857612f086145d9565b01602001516001600160f81b031916603160f81b03612f25578091505b80612f2f816144d1565b915050612eed565b50806000191480612f485750600181125b80612f5d57508251612f5b8260076149c7565b135b15612f6b5750600092915050565b82600081518110612f7e57612f7e6145d9565b6020910101516001600160f81b031916603160f91b148015612fc5575082600181518110612fae57612fae6145d9565b6020910101516001600160f81b031916606360f81b145b158015613029575082600081518110612fe057612fe06145d9565b6020910101516001600160f81b031916601d60fa1b148015613027575082600181518110613010576130106145d9565b6020910101516001600160f81b031916603160f91b145b155b156130375750600092915050565b6040805180820190915260208082527f71707a7279397838676632747664773073336a6e35346b686365366d7561376c9082015260006130788360016149c7565b90505b8451811015611021576000805b83518110156130f9578381815181106130a3576130a36145d9565b602001015160f81c60f81b6001600160f81b0319168784815181106130ca576130ca6145d9565b01602001516001600160f81b031916036130e757600191506130f9565b806130f1816144d1565b915050613088565b508061310b5750600095945050505050565b5080613116816144d1565b91505061307b565b600060606000807301000000000000000000000000000000000001036001600160a01b03168686604051602001613156929190614a08565b60408051601f1981840301815290829052613170916146c2565b600060405180830381855afa9150503d80600081146131ab576040519150601f19603f3d011682016040523d82523d6000602084013e6131b0565b606091505b5091509150816131d357604051631205d29f60e31b815260040160405180910390fd5b808060200190518101906131e79190614a36565b9097909650945050505050565b60008072184f03e93ff9f4daa797ed6e38ed64bf6a1f0160401b83106132335772184f03e93ff9f4daa797ed6e38ed64bf6a1f0160401b830492506040015b6d04ee2d6d415b85acef8100000000831061325f576d04ee2d6d415b85acef8100000000830492506020015b662386f26fc10000831061327d57662386f26fc10000830492506010015b6305f5e1008310613295576305f5e100830492506008015b61271083106132a957612710830492506004015b606483106132bb576064830492506002015b600a831061230c5760010192915050565b606060006132da84846146f7565b6001600160401b038111156132f1576132f16140dd565b6040519080825280601f01601f19166020018201604052801561331b576020820181803683370190505b509050835b838110801561332f5750855181105b1561339957858181518110613346576133466145d9565b01602001516001600160f81b0319168261336087846146f7565b81518110613370576133706145d9565b60200101906001600160f81b031916908160001a90535080613391816144d1565b915050613320565b50949350505050565b600081516028146133c65760405163acf8696960e01b815260040160405180910390fd5b6000600283516133d6919061475c565b6001600160401b038111156133ed576133ed6140dd565b6040519080825280601f01601f191660200182016040528015613417576020820181803683370190505b50905060005b6002845161342b919061475c565b8110156134c957613469846134418360026149a8565b61344c906001614458565b8151811061345c5761345c6145d9565b016020015160f81c613cbd565b6134788561344c8460026149a8565b613483906010614a97565b61348d9190614ac0565b60f81b8282815181106134a2576134a26145d9565b60200101906001600160f81b031916908160001a9053506134c2816144d1565b905061341d565b506134d381614ae5565b60601c9392505050565b60606000825b858110156135f8578686828181106134fd576134fd6145d9565b909101356001600160f81b031916601d60f91b0390506135e657848051906020012061356288888080601f0160208091040260200160405190810160405280939291908181526020018383808284376000920191909152508992508691506132cc9050565b80519060200120146135875750506040805160208101909152600081529050816136de565b80613591816144d1565b91505085811080156135cb57508686828181106135b0576135b06145d9565b9050013560f81c60f81b6001600160f81b031916600160fd1b145b156135de57806135da816144d1565b9150505b8093506135f8565b806135f0816144d1565b9150506134e3565b8581101561369657868682818110613612576136126145d9565b909101356001600160f81b031916600560f91b0390506136845761366f87878080601f0160208091040260200160405190810160405280939291908181526020018383808284376000920191909152508892508591506132cc9050565b61367a826001614458565b92509250506136de565b8061368e816144d1565b9150506135f8565b6136d987878080601f0160208091040260200160405190810160405280939291908181526020018383808284376000920191909152508892508591506132cc9050565b925090505b94509492505050565b600080805b8351811015613744576030848281518110613709576137096145d9565b016020015161371b919060f81c6146f7565b61372683600a6149a8565b6137309190614458565b91508061373c816144d1565b9150506136ec565b5092915050565b6060600082815b61375d6001876146f7565b82101561385857868683818110613776576137766145d9565b9050013560f81c60f81b6001600160f81b031916602d60f81b1480156137ce575086866137a4846001614458565b8181106137b3576137b36145d9565b9050013560f81c60f81b6001600160f81b031916600160fd1b145b156137f2576137de600283614458565b9150806137ea816144d1565b9150506137f7565b613858565b858210801561382f5750868683818110613813576138136145d9565b9050013560f81c60f81b6001600160f81b031916600a60f81b14155b15613846578161383e816144d1565b9250506137f7565b81613850816144d1565b925050613752565b6000816001600160401b03811115613872576138726140dd565b6040519080825280602002602001820160405280156138a557816020015b60608152602001906001900390816138905790505b50905085925060005b6138b96001896146f7565b841080156138c75750828114155b15613a2d578888858181106138de576138de6145d9565b9050013560f81c60f81b6001600160f81b031916602d60f81b1480156139365750888861390c866001614458565b81811061391b5761391b6145d9565b9050013560f81c60f81b6001600160f81b031916600160fd1b145b1561394957613946846002614458565b96505b87841080156139815750888885818110613965576139656145d9565b9050013560f81c60f81b6001600160f81b031916600a60f81b14155b156139985783613990816144d1565b945050613949565b6139db89898080601f0160208091040260200160405190810160405280939291908181526020018383808284376000920191909152508b92508891506132cc9050565b8282815181106139ed576139ed6145d9565b60200260200101819052508080613a03906144d1565b915050878403613a1b5783613a1781614b21565b9450505b83613a25816144d1565b9450506138ae565b509791965090945050505050565b60006107b25b8761ffff168161ffff161015613a9757613a5a81613da1565b15613a7457613a6d6301e2850083614458565b9150613a85565b613a826301e1338083614458565b91505b80613a8f81614b38565b915050613a41565b613a9f613f26565b601f8152613aac89613da1565b15613abd57601d6020820152613ac5565b601c60208201525b601f60408201819052601e606083018190526080830182905260a0830181905260c0830182905260e0830182905261010083018190526101208301829052610140830152610160820152600191505b8760ff168261ffff161015613b795780613b2f600184614b59565b61ffff16600c8110613b4357613b436145d9565b6020020151613b559062015180614b7c565b613b659063ffffffff1684614458565b925081613b7181614b38565b925050613b14565b613b84600188614ba8565b613b949060ff1662015180614b7c565b613ba49063ffffffff1684614458565b9250613bb560ff8716610e10614b7c565b613bc59063ffffffff1684614458565b9250613bd560ff8616603c614bcb565b613be39061ffff1684614458565b9250610f0c60ff851684614458565b60606000806004600160981b016001600160a01b031687878787604051602001613c1f9493929190614770565b60408051601f1981840301815290829052613c39916146c2565b600060405180830381855afa9150503d8060008114613c74576040519150601f19603f3d011682016040523d82523d6000602084013e613c79565b606091505b5091509150816123dd5760405162461bcd60e51b815260206004820152600f60248201526e191958dc9e5c1d0e8819985a5b1959608a1b604482015260640161100b565b6000600360fc1b60f883901b6001600160f81b03191610801590613cf35750603960f81b60f883901b6001600160f81b03191611155b15613d035761230c603083614ba8565b606160f81b60f883901b6001600160f81b03191610801590613d375750603360f91b60f883901b6001600160f81b03191611155b15613d53576061613d4983600a614ac0565b61230c9190614ba8565b604160f81b60f883901b6001600160f81b03191610801590613d875750602360f91b60f883901b6001600160f81b03191611155b15613d99576041613d4983600a614ac0565b506000919050565b6000613dae600483614bec565b61ffff1615613dbf57506000919050565b613dca606483614bec565b61ffff1615613ddb57506001919050565b613de761019083614bec565b61ffff1615613df857506000919050565b506001919050565b828054613e0c9061440e565b90600052602060002090601f016020900481019282613e2e5760008555613e74565b82601f10613e4757805160ff1916838001178555613e74565b82800160010185558215613e74579182015b82811115613e74578251825591602001919060010190613e59565b50613e80929150613f45565b5090565b6040518060a001604052806060815260200160006001600160a01b031681526020016000815260200160608152602001606081525090565b6040518061018001604052806060815260200160006001600160a01b03168152602001606081526020016060815260200160608152602001600081526020016060815260200160608152602001606081526020016060815260200160608152602001606081525090565b604051806101800160405280600c906020820280368337509192915050565b5b80821115613e805760008155600101613f46565b600060208284031215613f6c57600080fd5b5035919050565b60005b83811015613f8e578181015183820152602001613f76565b838111156114765750506000910152565b60008151808452613fb7816020860160208601613f73565b601f01601f19169290920160200192915050565b6020815260006106a56020830184613f9f565b6001600160a01b0381168114613ff357600080fd5b50565b6000806040838503121561400957600080fd5b823561401481613fde565b946020939093013593505050565b60008060006060848603121561403757600080fd5b833561404281613fde565b95602085013595506040909401359392505050565b60018060a01b038716815285602082015284604082015260c06060820152600061408460c0830186613f9f565b60ff9490941660808301525060a00152949350505050565b6000806000606084860312156140b157600080fd5b83356140bc81613fde565b925060208401356140cc81613fde565b929592945050506040919091013590565b634e487b7160e01b600052604160045260246000fd5b60405160a081016001600160401b0381118282101715614115576141156140dd565b60405290565b604051601f8201601f191681016001600160401b0381118282101715614143576141436140dd565b604052919050565b60006001600160401b03821115614164576141646140dd565b50601f01601f191660200190565b60006141856141808461414b565b61411b565b905082815283838301111561419957600080fd5b828260208301376000602084830101529392505050565b600080604083850312156141c357600080fd5b8235915060208301356001600160401b038111156141e057600080fd5b8301601f810185136141f157600080fd5b61420085823560208401614172565b9150509250929050565b60008083601f84011261421c57600080fd5b5081356001600160401b0381111561423357600080fd5b60208301915083602082850101111561424b57600080fd5b9250929050565b6000806000806060858703121561426857600080fd5b8435935060208501356001600160401b0381111561428557600080fd5b6142918782880161420a565b9598909750949560400135949350505050565b6000602082840312156142b657600080fd5b81356106a581613fde565b600082601f8301126142d257600080fd5b6106a583833560208501614172565b600080604083850312156142f457600080fd5b8235915060208301356001600160401b0381111561431157600080fd5b614200858286016142c1565b60008060006060848603121561433257600080fd5b8335925060208401356001600160401b0381111561434f57600080fd5b61435b868287016142c1565b925050604084013561436c81613fde565b809150509250925092565b6000806000838503608081121561438d57600080fd5b84356001600160401b038111156143a357600080fd5b6143af8782880161420a565b9095509350506060601f19820112156143c757600080fd5b506020840190509250925092565b600080604083850312156143e857600080fd5b82356143f381613fde565b9150602083013561440381613fde565b809150509250929050565b600181811c9082168061442257607f821691505b60208210810361168257634e487b7160e01b600052602260045260246000fd5b634e487b7160e01b600052601160045260246000fd5b6000821982111561446b5761446b614442565b500190565b83815260406020820152816040820152818360608301376000818301606090810191909152601f909201601f1916010192915050565b8381526060602082015260006144bf6060830185613f9f565b82810360408401526123dd8185613f9f565b6000600182016144e3576144e3614442565b5060010190565b7f19457468657265756d205369676e6564204d6573736167653a0a00000000000081526000845161452281601a850160208901613f73565b82018385601a83013760009301601a0192835250909392505050565b600080835481600182811c91508083168061455a57607f831692505b6020808410820361457957634e487b7160e01b86526022600452602486fd5b81801561458d576001811461459e576145cb565b60ff198616895284890196506145cb565b60008a81526020902060005b868110156145c35781548b8201529085019083016145aa565b505084890196505b509498975050505050505050565b634e487b7160e01b600052603260045260246000fd5b60006020808352835160a08285015261460b60c0850182613f9f565b905060018060a01b0382860151166040850152604085015160608501526060850151601f19808684030160808701526146448383613f9f565b6080880151878203830160a089015280518083529194508501925084840190600581901b8501860160005b8281101561469b5784878303018452614689828751613f9f565b9588019593880193915060010161466f565b509998505050505050505050565b82815260406020820152600061121f6040830184613f9f565b600082516146d4818460208701613f73565b9190910192915050565b6000602082840312156146f057600080fd5b5051919050565b60008282101561470957614709614442565b500390565b634e487b7160e01b600052601260045260246000fd5b6000826147335761473361470e565b500690565b6000806040838503121561474b57600080fd5b505080516020909101519092909150565b60008261476b5761476b61470e565b500490565b84815283602082015260806040820152600061478f6080830185613f9f565b82810360608401526147a18185613f9f565b979650505050505050565b60006147ba6141808461414b565b90508281528383830111156147ce57600080fd5b6106a5836020830184613f73565b600082601f8301126147ed57600080fd5b6106a5838351602085016147ac565b805161480781613fde565b919050565b600082601f83011261481d57600080fd5b815160206001600160401b0380831115614839576148396140dd565b8260051b61484883820161411b565b938452858101830193838101908886111561486257600080fd5b84880192505b8583101561489e578251848111156148805760008081fd5b61488e8a87838c01016147dc565b8352509184019190840190614868565b98975050505050505050565b6000602082840312156148bc57600080fd5b81516001600160401b03808211156148d357600080fd5b9083019060a082860312156148e757600080fd5b6148ef6140f3565b8251828111156148fe57600080fd5b61490a878286016147dc565b825250614919602084016147fc565b60208201526040830151604082015260608301518281111561493a57600080fd5b614946878286016147dc565b60608301525060808301518281111561495e57600080fd5b61496a8782860161480c565b60808301525095945050505050565b6000835161498b818460208801613f73565b6001600160e01b0319939093169190920190815260040192915050565b60008160001904831182151516156149c2576149c2614442565b500290565b600080821280156001600160ff1b03849003851316156149e9576149e9614442565b600160ff1b8390038412811615614a0257614a02614442565b50500190565b604081526000614a1b6040830185613f9f565b8281036020840152614a2d8185613f9f565b95945050505050565b60008060408385031215614a4957600080fd5b82516001600160401b038082168214614a6157600080fd5b602085015191935080821115614a7657600080fd5b508301601f81018513614a8857600080fd5b614200858251602084016147ac565b600060ff821660ff84168160ff0481118215151615614ab857614ab8614442565b029392505050565b600060ff821660ff84168060ff03821115614add57614add614442565b019392505050565b805160208201516bffffffffffffffffffffffff198082169291906014831015614b195780818460140360031b1b83161693505b505050919050565b600081614b3057614b30614442565b506000190190565b600061ffff808316818103614b4f57614b4f614442565b6001019392505050565b600061ffff83811690831681811015614b7457614b74614442565b039392505050565b600063ffffffff80831681851681830481118215151615614b9f57614b9f614442565b02949350505050565b600060ff821660ff841680821015614bc257614bc2614442565b90039392505050565b600061ffff80831681851681830481118215151615614b9f57614b9f614442565b600061ffff80841680614c0157614c0161470e565b9216919091069291505056fe31323334353637383941424344454647484a4b4c4d4e505152535455565758595a6162636465666768696a6b6d6e6f707172737475767778797aa26469706673582212206ca4b3fc77ab64b9853544873e58134e7a13a7d96b3fec52b719f19108a2047264736f6c634300080d0033",
  "linkReferences": {
    "contracts/utils/RFC6979.sol": {
      "RFC6979": [
        {
          "length": 20,
          "start": 7121
        }
      ]
    },
    "contracts/utils/SECP256K1.sol": {
      "SECP256K1": [
        {
          "length": 20,
          "start": 7295
        },
        {
          "length": 20,
          "start": 7471
        },
        {
          "length": 20,
          "start": 10800
        }
      ]
    }
  },
  "deployedLinkReferences": {
    "contracts/utils/RFC6979.sol": {
      "RFC6979": [
        {
          "length": 20,
          "start": 5864
        }
      ]
    },
    "contracts/utils/SECP256K1.sol": {
      "SECP256K1": [
        {
          "length": 20,
          "start": 6038
        },
        {
          "length": 20,
          "start": 6214
        },
        {
          "length": 20,
          "start": 9543
        }
      ]
    }
  }
}