{
  "_format": "hh-sol-artifact-1",
  "contractName": "TrustlessBTC",
  "sourceName": "contracts/tBTC.sol",
  "abi": [
    {
      "inputs": [
        {
          "internalType": "bytes21",
          "name": "inRoflAppID",
          "type": "bytes21"
        },
        {
          "internalType": "address",
          "name": "inOracle",
          "type": "address"
        }
      ],
      "stateMutability": "nonpayable",
      "type": "constructor"
    },
    {
      "inputs": [],
      "name": "InvalidPrivateKey",
      "type": "error"
    },
    {
      "inputs": [],
      "name": "InvalidSignature",
      "type": "error"
    },
    {
      "inputs": [],
      "name": "KeyGenerationFailed",
      "type": "error"
    },
    {
      "inputs": [],
      "name": "KeysAlreadyGenerated",
      "type": "error"
    },
    {
      "inputs": [],
      "name": "RoflOriginNotAuthorizedForApp",
      "type": "error"
    },
    {
      "inputs": [],
      "name": "SubcallError",
      "type": "error"
    },
    {
      "inputs": [],
      "name": "UnauthorizedOracle",
      "type": "error"
    },
    {
      "anonymous": false,
      "inputs": [
        {
          "indexed": true,
          "internalType": "address",
          "name": "owner",
          "type": "address"
        },
        {
          "indexed": true,
          "internalType": "address",
          "name": "spender",
          "type": "address"
        },
        {
          "indexed": false,
          "internalType": "uint256",
          "name": "value",
          "type": "uint256"
        }
      ],
      "name": "Approval",
      "type": "event"
    },
    {
      "anonymous": false,
      "inputs": [
        {
          "indexed": false,
          "internalType": "uint256",
          "name": "burnId",
          "type": "uint256"
        }
      ],
      "name": "Burn",
      "type": "event"
    },
    {
      "anonymous": false,
      "inputs": [
        {
          "indexed": false,
          "internalType": "uint256",
          "name": "burnId",
          "type": "uint256"
        }
      ],
      "name": "BurnGenerateTransaction",
      "type": "event"
    },
    {
      "anonymous": false,
      "inputs": [
        {
          "indexed": false,
          "internalType": "uint256",
          "name": "burnId",
          "type": "uint256"
        },
        {
          "indexed": false,
          "internalType": "bytes32",
          "name": "transactionHash",
          "type": "bytes32"
        }
      ],
      "name": "BurnSigned",
      "type": "event"
    },
    {
      "anonymous": false,
      "inputs": [
        {
          "indexed": false,
          "internalType": "uint256",
          "name": "burnId",
          "type": "uint256"
        }
      ],
      "name": "BurnValidateTransaction",
      "type": "event"
    },
    {
      "anonymous": false,
      "inputs": [
        {
          "indexed": false,
          "internalType": "uint256",
          "name": "burnId",
          "type": "uint256"
        }
      ],
      "name": "BurnValidated",
      "type": "event"
    },
    {
      "anonymous": false,
      "inputs": [
        {
          "indexed": false,
          "internalType": "bytes32",
          "name": "privateKey",
          "type": "bytes32"
        },
        {
          "indexed": false,
          "internalType": "bytes",
          "name": "publicKey",
          "type": "bytes"
        },
        {
          "indexed": false,
          "internalType": "string",
          "name": "bitcoinAddress",
          "type": "string"
        }
      ],
      "name": "KeysGenerated",
      "type": "event"
    },
    {
      "anonymous": false,
      "inputs": [
        {
          "indexed": true,
          "internalType": "bytes32",
          "name": "txHash",
          "type": "bytes32"
        },
        {
          "indexed": false,
          "internalType": "string",
          "name": "signature",
          "type": "string"
        },
        {
          "indexed": true,
          "internalType": "address",
          "name": "ethereumAddress",
          "type": "address"
        }
      ],
      "name": "TransactionProofSubmitted",
      "type": "event"
    },
    {
      "anonymous": false,
      "inputs": [
        {
          "indexed": true,
          "internalType": "address",
          "name": "from",
          "type": "address"
        },
        {
          "indexed": true,
          "internalType": "address",
          "name": "to",
          "type": "address"
        },
        {
          "indexed": false,
          "internalType": "uint256",
          "name": "value",
          "type": "uint256"
        }
      ],
      "name": "Transfer",
      "type": "event"
    },
    {
      "inputs": [
        {
          "internalType": "address",
          "name": "owner",
          "type": "address"
        },
        {
          "internalType": "address",
          "name": "spender",
          "type": "address"
        }
      ],
      "name": "allowance",
      "outputs": [
        {
          "internalType": "uint256",
          "name": "",
          "type": "uint256"
        }
      ],
      "stateMutability": "view",
      "type": "function"
    },
    {
      "inputs": [
        {
          "internalType": "address",
          "name": "spender",
          "type": "address"
        },
        {
          "internalType": "uint256",
          "name": "amount",
          "type": "uint256"
        }
      ],
      "name": "approve",
      "outputs": [
        {
          "internalType": "bool",
          "name": "",
          "type": "bool"
        }
      ],
      "stateMutability": "nonpayable",
      "type": "function"
    },
    {
      "inputs": [
        {
          "internalType": "address",
          "name": "account",
          "type": "address"
        }
      ],
      "name": "balanceOf",
      "outputs": [
        {
          "internalType": "uint256",
          "name": "",
          "type": "uint256"
        }
      ],
      "stateMutability": "view",
      "type": "function"
    },
    {
      "inputs": [],
      "name": "bitcoinAddress",
      "outputs": [
        {
          "internalType": "string",
          "name": "",
          "type": "string"
        }
      ],
      "stateMutability": "view",
      "type": "function"
    },
    {
      "inputs": [
        {
          "internalType": "uint256",
          "name": "amount",
          "type": "uint256"
        },
        {
          "internalType": "string",
          "name": "_bitcoinAddress",
          "type": "string"
        }
      ],
      "name": "burn",
      "outputs": [],
      "stateMutability": "nonpayable",
      "type": "function"
    },
    {
      "inputs": [],
      "name": "burnCounter",
      "outputs": [
        {
          "internalType": "uint256",
          "name": "",
          "type": "uint256"
        }
      ],
      "stateMutability": "view",
      "type": "function"
    },
    {
      "inputs": [
        {
          "internalType": "uint256",
          "name": "",
          "type": "uint256"
        }
      ],
      "name": "burnData",
      "outputs": [
        {
          "internalType": "address",
          "name": "user",
          "type": "address"
        },
        {
          "internalType": "uint256",
          "name": "amount",
          "type": "uint256"
        },
        {
          "internalType": "uint256",
          "name": "timestamp",
          "type": "uint256"
        },
        {
          "internalType": "string",
          "name": "bitcoinAddress",
          "type": "string"
        },
        {
          "internalType": "bytes32",
          "name": "transactionHash",
          "type": "bytes32"
        },
        {
          "internalType": "uint8",
          "name": "status",
          "type": "uint8"
        },
        {
          "internalType": "uint256",
          "name": "nonce",
          "type": "uint256"
        },
        {
          "internalType": "uint256",
          "name": "r",
          "type": "uint256"
        },
        {
          "internalType": "uint256",
          "name": "s",
          "type": "uint256"
        },
        {
          "internalType": "uint8",
          "name": "v",
          "type": "uint8"
        }
      ],
      "stateMutability": "view",
      "type": "function"
    },
    {
      "inputs": [],
      "name": "decimals",
      "outputs": [
        {
          "internalType": "uint8",
          "name": "",
          "type": "uint8"
        }
      ],
      "stateMutability": "view",
      "type": "function"
    },
    {
      "inputs": [
        {
          "internalType": "address",
          "name": "spender",
          "type": "address"
        },
        {
          "internalType": "uint256",
          "name": "subtractedValue",
          "type": "uint256"
        }
      ],
      "name": "decreaseAllowance",
      "outputs": [
        {
          "internalType": "bool",
          "name": "",
          "type": "bool"
        }
      ],
      "stateMutability": "nonpayable",
      "type": "function"
    },
    {
      "inputs": [],
      "name": "generateBurnTransaction",
      "outputs": [],
      "stateMutability": "nonpayable",
      "type": "function"
    },
    {
      "inputs": [],
      "name": "generateKeys",
      "outputs": [],
      "stateMutability": "nonpayable",
      "type": "function"
    },
    {
      "inputs": [
        {
          "internalType": "address",
          "name": "spender",
          "type": "address"
        },
        {
          "internalType": "uint256",
          "name": "addedValue",
          "type": "uint256"
        }
      ],
      "name": "increaseAllowance",
      "outputs": [
        {
          "internalType": "bool",
          "name": "",
          "type": "bool"
        }
      ],
      "stateMutability": "nonpayable",
      "type": "function"
    },
    {
      "inputs": [],
      "name": "keysGenerated",
      "outputs": [
        {
          "internalType": "bool",
          "name": "",
          "type": "bool"
        }
      ],
      "stateMutability": "view",
      "type": "function"
    },
    {
      "inputs": [],
      "name": "lastVerifiedBurn",
      "outputs": [
        {
          "internalType": "uint256",
          "name": "",
          "type": "uint256"
        }
      ],
      "stateMutability": "view",
      "type": "function"
    },
    {
      "inputs": [
        {
          "internalType": "address",
          "name": "account",
          "type": "address"
        },
        {
          "internalType": "uint256",
          "name": "amount",
          "type": "uint256"
        },
        {
          "internalType": "bytes32",
          "name": "txHash",
          "type": "bytes32"
        }
      ],
      "name": "mint",
      "outputs": [],
      "stateMutability": "nonpayable",
      "type": "function"
    },
    {
      "inputs": [],
      "name": "name",
      "outputs": [
        {
          "internalType": "string",
          "name": "",
          "type": "string"
        }
      ],
      "stateMutability": "view",
      "type": "function"
    },
    {
      "inputs": [],
      "name": "oracle",
      "outputs": [
        {
          "internalType": "address",
          "name": "",
          "type": "address"
        }
      ],
      "stateMutability": "view",
      "type": "function"
    },
    {
      "inputs": [],
      "name": "publicKey",
      "outputs": [
        {
          "internalType": "bytes",
          "name": "",
          "type": "bytes"
        }
      ],
      "stateMutability": "view",
      "type": "function"
    },
    {
      "inputs": [],
      "name": "roflAppID",
      "outputs": [
        {
          "internalType": "bytes21",
          "name": "",
          "type": "bytes21"
        }
      ],
      "stateMutability": "view",
      "type": "function"
    },
    {
      "inputs": [
        {
          "internalType": "address",
          "name": "addr",
          "type": "address"
        }
      ],
      "name": "setOracle",
      "outputs": [],
      "stateMutability": "nonpayable",
      "type": "function"
    },
    {
      "inputs": [
        {
          "internalType": "bytes32",
          "name": "msgHash",
          "type": "bytes32"
        }
      ],
      "name": "sign",
      "outputs": [
        {
          "internalType": "uint256",
          "name": "nonce",
          "type": "uint256"
        },
        {
          "internalType": "uint256",
          "name": "r",
          "type": "uint256"
        },
        {
          "internalType": "uint256",
          "name": "s",
          "type": "uint256"
        },
        {
          "internalType": "uint8",
          "name": "v",
          "type": "uint8"
        }
      ],
      "stateMutability": "view",
      "type": "function"
    },
    {
      "inputs": [
        {
          "internalType": "uint256",
          "name": "burnId",
          "type": "uint256"
        },
        {
          "internalType": "bytes32",
          "name": "transactionHash",
          "type": "bytes32"
        }
      ],
      "name": "signBurn",
      "outputs": [
        {
          "internalType": "uint256",
          "name": "nonce",
          "type": "uint256"
        },
        {
          "internalType": "uint256",
          "name": "r",
          "type": "uint256"
        },
        {
          "internalType": "uint256",
          "name": "s",
          "type": "uint256"
        },
        {
          "internalType": "uint8",
          "name": "v",
          "type": "uint8"
        }
      ],
      "stateMutability": "nonpayable",
      "type": "function"
    },
    {
      "inputs": [
        {
          "internalType": "bytes32",
          "name": "txHash",
          "type": "bytes32"
        },
        {
          "internalType": "string",
          "name": "signature",
          "type": "string"
        },
        {
          "internalType": "address",
          "name": "ethereumAddress",
          "type": "address"
        }
      ],
      "name": "submitMintTransactionProof",
      "outputs": [],
      "stateMutability": "nonpayable",
      "type": "function"
    },
    {
      "inputs": [
        {
          "internalType": "bytes32",
          "name": "",
          "type": "bytes32"
        }
      ],
      "name": "submittedTransactions",
      "outputs": [
        {
          "internalType": "bool",
          "name": "",
          "type": "bool"
        }
      ],
      "stateMutability": "view",
      "type": "function"
    },
    {
      "inputs": [],
      "name": "symbol",
      "outputs": [
        {
          "internalType": "string",
          "name": "",
          "type": "string"
        }
      ],
      "stateMutability": "view",
      "type": "function"
    },
    {
      "inputs": [],
      "name": "totalSupply",
      "outputs": [
        {
          "internalType": "uint256",
          "name": "",
          "type": "uint256"
        }
      ],
      "stateMutability": "view",
      "type": "function"
    },
    {
      "inputs": [
        {
          "internalType": "address",
          "name": "to",
          "type": "address"
        },
        {
          "internalType": "uint256",
          "name": "amount",
          "type": "uint256"
        }
      ],
      "name": "transfer",
      "outputs": [
        {
          "internalType": "bool",
          "name": "",
          "type": "bool"
        }
      ],
      "stateMutability": "nonpayable",
      "type": "function"
    },
    {
      "inputs": [
        {
          "internalType": "address",
          "name": "from",
          "type": "address"
        },
        {
          "internalType": "address",
          "name": "to",
          "type": "address"
        },
        {
          "internalType": "uint256",
          "name": "amount",
          "type": "uint256"
        }
      ],
      "name": "transferFrom",
      "outputs": [
        {
          "internalType": "bool",
          "name": "",
          "type": "bool"
        }
      ],
      "stateMutability": "nonpayable",
      "type": "function"
    },
    {
      "inputs": [
        {
          "internalType": "uint256",
          "name": "burnId",
          "type": "uint256"
        }
      ],
      "name": "validateBurn",
      "outputs": [],
      "stateMutability": "nonpayable",
      "type": "function"
    },
    {
      "inputs": [],
      "name": "validateBurnTransaction",
      "outputs": [],
      "stateMutability": "nonpayable",
      "type": "function"
    }
  ],
  "bytecode": "0x608060405260006009556000600a553480156200001b57600080fd5b5060405162002a0b38038062002a0b8339810160408190526200003e9162000199565b604080518082018252600d81526c54727573746c6573732042544360981b6020808301918252835180850190945260048452637442544360e01b9084015281519192916200008f91600391620000f3565b508051620000a5906004906020840190620000f3565b5050600680546001600160a81b03191660589490941c93909317909255600580546001600160a01b0319166001600160a01b039290921691909117905550600e805460ff191690556200022b565b8280546200010190620001ef565b90600052602060002090601f01602090048101928262000125576000855562000170565b82601f106200014057805160ff191683800117855562000170565b8280016001018555821562000170579182015b828111156200017057825182559160200191906001019062000153565b506200017e92915062000182565b5090565b5b808211156200017e576000815560010162000183565b60008060408385031215620001ad57600080fd5b82516001600160581b031981168114620001c657600080fd5b60208401519092506001600160a01b0381168114620001e457600080fd5b809150509250929050565b600181811c908216806200020457607f821691505b6020821081036200022557634e487b7160e01b600052602260045260246000fd5b50919050565b6127d0806200023b6000396000f3fe608060405234801561001057600080fd5b50600436106101da5760003560e01c8063728dda6811610104578063951f55dd116100a2578063b7982da711610071578063b7982da714610406578063dd62ed3e14610413578063ed986f1d14610426578063efae93df1461043957600080fd5b8063951f55dd146103cf57806395d89b41146103d8578063a457c2d7146103e0578063a9059cbb146103f357600080fd5b8063799cd333116100de578063799cd3331461036b5780637adbf9731461037e5780637d5c0900146103915780637dc0d1d0146103a457600080fd5b8063728dda68146103485780637641e6f3146103505780637651bc921461036357600080fd5b8063313ce5671161017c5780635b9d136c1161014b5780635b9d136c146102ec5780635d12fd64146102f457806363ffab311461031757806370a082311461031f57600080fd5b8063313ce567146102b9578063332721c0146102c857806339509351146102d05780634c99007d146102e357600080fd5b80631e458bee116101b85780631e458bee14610232578063223b7ea21461024757806323b872dd14610270578063244806af1461028357600080fd5b806306fdde03146101df578063095ea7b3146101fd57806318160ddd14610220575b600080fd5b6101e7610463565b6040516101f4919061215d565b60405180910390f35b61021061020b36600461218c565b6104f5565b60405190151581526020016101f4565b6002545b6040519081526020016101f4565b6102456102403660046121b6565b61050d565b005b61025a6102553660046121e9565b610598565b6040516101f49a99989796959493929190612202565b61021061027e36600461226c565b610681565b6102966102913660046122a8565b6106a5565b6040805194855260208501939093529183015260ff1660608201526080016101f4565b604051600881526020016101f4565b6102456107fb565b6102106102de36600461218c565b6108aa565b61022460095481565b6102456108cc565b6102106103023660046121e9565b60076020526000908152604090205460ff1681565b6101e76109bf565b61022461032d3660046122ca565b6001600160a01b031660009081526020819052604090205490565b610245610a4d565b61024561035e3660046123aa565b610af5565b6101e7610ca2565b6102966103793660046121e9565b610caf565b61024561038c3660046122ca565b610cd0565b61024561039f3660046123f1565b610d02565b6005546103b7906001600160a01b031681565b6040516001600160a01b0390911681526020016101f4565b610224600a5481565b6101e7610d78565b6102106103ee36600461218c565b610d87565b61021061040136600461218c565b610e02565b600e546102109060ff1681565b610224610421366004612448565b610e10565b6102456104343660046121e9565b610e3b565b6006546104469060581b81565b6040516affffffffffffffffffffff1990911681526020016101f4565b6060600380546104729061247b565b80601f016020809104026020016040519081016040528092919081815260200182805461049e9061247b565b80156104eb5780601f106104c0576101008083540402835291602001916104eb565b820191906000526020600020905b8154815290600101906020018083116104ce57829003601f168201915b5050505050905090565b600033610503818585610f1d565b5060019392505050565b6005546001600160a01b031633146105385760405163db8d1fb760e01b815260040160405180910390fd5b60008181526007602052604090205460ff16156105705760405162461bcd60e51b8152600401610567906124b5565b60405180910390fd5b6000818152600760205260409020805460ff191660011790556105938383611039565b505050565b60086020526000908152604090208054600182015460028301546003840180546001600160a01b039094169492939192916105d29061247b565b80601f01602080910402602001604051908101604052809291908181526020018280546105fe9061247b565b801561064b5780601f106106205761010080835404028352916020019161064b565b820191906000526020600020905b81548152906001019060200180831161062e57829003601f168201915b505050600484015460058501546006860154600787015460088801546009909801549697939660ff93841696509194509291168a565b60003361068f8582856110f8565b61069a858585611172565b506001949350505050565b6005546000908190819081906001600160a01b031633146106d95760405163db8d1fb760e01b815260040160405180910390fd5b60008681526008602052604090206005015460ff1660011461073d5760405162461bcd60e51b815260206004820152601e60248201527f4275726e207472616e73616374696f6e206e6f742067656e65726174656400006044820152606401610567565b6000868152600860205260409020600401859055600b5461075e9086611316565b60008a815260086020819052604091829020600681018790556007810186905590810184905560098101805460ff851660ff199182161790915560059091018054909116600217905551939750919550935091507f27faea6ea92fb8e98e4b9b5401ac6a705cbab34c0f9f47c86de442bb685452b0906107ea9088908890918252602082015260400190565b60405180910390a192959194509250565b6000600a54600161080c919061250d565b60008181526008602052604090206005015490915060ff166001146108735760405162461bcd60e51b815260206004820152601e60248201527f4275726e207472616e73616374696f6e206e6f742067656e65726174656400006044820152606401610567565b6040518181527f9e82575b9111faf857338929e8d783c1d947a26ba51ddf6b53bb54deb9bb2db6906020015b60405180910390a150565b6000336105038185856108bd8383610e10565b6108c7919061250d565b610f1d565b600e5460ff16156108f057604051638bc2607960e01b815260040160405180910390fd5b60008060006108fd6115e9565b9194509250905082610922576040516336f3aa6f60e21b815260040160405180910390fd5b8151600003610944576040516336f3aa6f60e21b815260040160405180910390fd5b600b839055815161095c90600c90602085019061206c565b50805161097090600d90602084019061206c565b50600e805460ff191660011790556040517f5115bb2b6499674f83ba12d4cbda8520cb6c66a33b055030511fe09cc54a5483906109b290859085908590612525565b60405180910390a1505050565b600c80546109cc9061247b565b80601f01602080910402602001604051908101604052809291908181526020018280546109f89061247b565b8015610a455780601f10610a1a57610100808354040283529160200191610a45565b820191906000526020600020905b815481529060010190602001808311610a2857829003601f168201915b505050505081565b6000600a546001610a5e919061250d565b60008181526008602052604090206005015490915060ff16600214610ac55760405162461bcd60e51b815260206004820152601b60248201527f4275726e207472616e73616374696f6e206e6f74207369676e656400000000006044820152606401610567565b6040518181527f55cd74b4a56c33b26dab31dd62856e2612c9eea6e5c8104c51ddb4092f003fd79060200161089f565b60098054906000610b058361255a565b9190505550604051806101400160405280610b1d3390565b6001600160a01b0390811682526020808301869052426040808501919091526060808501879052600060808601819052600160a0870181905260c0870182905260e087018290526101008701829052610120909601819052600954815260088452829020865181546001600160a01b0319169516949094178455858301519484019490945584015160028301559183015180519192610bc49260038501929091019061206c565b506080820151600482015560a082015160058201805460ff1990811660ff9384161790915560c0840151600684015560e08401516007840155610100840151600884015561012090930151600990920180549093169116179055610c283383611623565b7fb90306ad06b2a6ff86ddc9327db583062895ef6540e62dc50add009db5b356eb600954604051610c5b91815260200190565b60405180910390a17f9e82575b9111faf857338929e8d783c1d947a26ba51ddf6b53bb54deb9bb2db6600954604051610c9691815260200190565b60405180910390a15050565b600d80546109cc9061247b565b600080600080610cc1600b5486611316565b93509350935093509193509193565b60065460581b610cdf81611755565b50600580546001600160a01b0319166001600160a01b0392909216919091179055565b60008381526007602052604090205460ff1615610d315760405162461bcd60e51b8152600401610567906124b5565b806001600160a01b0316837f7837b147fa4937c358ad24213e667ebee6a1500caf7d6f10b926cd9186cdaff284604051610d6b919061215d565b60405180910390a3505050565b6060600480546104729061247b565b60003381610d958286610e10565b905083811015610df55760405162461bcd60e51b815260206004820152602560248201527f45524332303a2064656372656173656420616c6c6f77616e63652062656c6f77604482015264207a65726f60d81b6064820152608401610567565b61069a8286868403610f1d565b600033610503818585611172565b6001600160a01b03918216600090815260016020908152604080832093909416825291909152205490565b6005546001600160a01b03163314610e665760405163db8d1fb760e01b815260040160405180910390fd5b60008181526008602052604090206005015460ff16600214610eca5760405162461bcd60e51b815260206004820152601b60248201527f4275726e207472616e73616374696f6e206e6f74207369676e656400000000006044820152606401610567565b60008181526008602052604090819020600501805460ff19166003179055600a829055517f3b6b257ac74b84b471cfde2127a232baabeb4df267da1f2112c46e8b37e2eb1a9061089f9083815260200190565b6001600160a01b038316610f7f5760405162461bcd60e51b8152602060048201526024808201527f45524332303a20617070726f76652066726f6d20746865207a65726f206164646044820152637265737360e01b6064820152608401610567565b6001600160a01b038216610fe05760405162461bcd60e51b815260206004820152602260248201527f45524332303a20617070726f766520746f20746865207a65726f206164647265604482015261737360f01b6064820152608401610567565b6001600160a01b0383811660008181526001602090815260408083209487168084529482529182902085905590518481527f8c5be1e5ebec7d5bd14f71427d1e84f3dd0314c0f7b2291e5b200ac8c7c3b9259101610d6b565b6001600160a01b03821661108f5760405162461bcd60e51b815260206004820152601f60248201527f45524332303a206d696e7420746f20746865207a65726f2061646472657373006044820152606401610567565b80600260008282546110a1919061250d565b90915550506001600160a01b038216600081815260208181526040808320805486019055518481527fddf252ad1be2c89b69c2b068fc378daa952ba7f163c4a11628f55a4df523b3ef910160405180910390a35050565b60006111048484610e10565b9050600019811461116c578181101561115f5760405162461bcd60e51b815260206004820152601d60248201527f45524332303a20696e73756666696369656e7420616c6c6f77616e63650000006044820152606401610567565b61116c8484848403610f1d565b50505050565b6001600160a01b0383166111d65760405162461bcd60e51b815260206004820152602560248201527f45524332303a207472616e736665722066726f6d20746865207a65726f206164604482015264647265737360d81b6064820152608401610567565b6001600160a01b0382166112385760405162461bcd60e51b815260206004820152602360248201527f45524332303a207472616e7366657220746f20746865207a65726f206164647260448201526265737360e81b6064820152608401610567565b6001600160a01b038316600090815260208190526040902054818110156112b05760405162461bcd60e51b815260206004820152602660248201527f45524332303a207472616e7366657220616d6f756e7420657863656564732062604482015265616c616e636560d01b6064820152608401610567565b6001600160a01b03848116600081815260208181526040808320878703905593871680835291849020805487019055925185815290927fddf252ad1be2c89b69c2b068fc378daa952ba7f163c4a11628f55a4df523b3ef910160405180910390a361116c565b60008080808580158061133b575070014551231950b75fc4402da1732fc9bebe198110155b1561135957604051633a98faef60e21b815260040160405180910390fd5b60405163c8db7a0560e01b8152600481018890526024810187905273__$595d719bf3ea57f15671819786dbba407f$__9063c8db7a0590604401602060405180830381865af41580156113b0573d6000803e3d6000fd5b505050506040513d601f19601f820116820180604052508101906113d49190612573565b94506113f3600170014551231950b75fc4402da1732fc9bebe1961258c565b6113fd90866125b9565b61140890600161250d565b604051634f08f86b60e11b81526004810182905290955060009073__$4b6656ff4d44dcda56160d380fe9702bb7$__90639e11f0d6906024016040805180830381865af415801561145d573d6000803e3d6000fd5b505050506040513d601f19601f8201168201806040525081019061148191906125cd565b5090506114a070014551231950b75fc4402da1732fc9bebe19826125b9565b6040516365232f3760e11b81526004810188905270014551231950b75fc4402da1732fc9bebe19602482015290955060009073__$4b6656ff4d44dcda56160d380fe9702bb7$__9063ca465e6e90604401602060405180830381865af415801561150e573d6000803e3d6000fd5b505050506040513d601f19601f820116820180604052508101906115329190612573565b905070014551231950b75fc4402da1732fc9bebe198070014551231950b75fc4402da1732fc9bebe198589098a0882099450611581600270014551231950b75fc4402da1732fc9bebe196125f1565b8511156115af576115a48570014551231950b75fc4402da1732fc9bebe1961258c565b9450600193506115b4565b600093505b8515806115bf575084155b156115dd57604051638baa579f60e01b815260040160405180910390fd5b50505092959194509250565b60006060806115f6611843565b9250611601836118a5565b91506000611610836001611999565b905061161b81611b94565b915050909192565b6001600160a01b0382166116835760405162461bcd60e51b815260206004820152602160248201527f45524332303a206275726e2066726f6d20746865207a65726f206164647265736044820152607360f81b6064820152608401610567565b6001600160a01b038216600090815260208190526040902054818110156116f75760405162461bcd60e51b815260206004820152602260248201527f45524332303a206275726e20616d6f756e7420657863656564732062616c616e604482015261636560f01b6064820152608401610567565b6001600160a01b0383166000818152602081815260408083208686039055600280548790039055518581529192917fddf252ad1be2c89b69c2b068fc378daa952ba7f163c4a11628f55a4df523b3ef910160405180910390a3505050565b6000806117d46040518060400160405280601781526020017f726f666c2e4973417574686f72697a65644f726967696e000000000000000000815250846040516020016117c09190605560f81b81526affffffffffffffffffffff1991909116600182015260160190565b604051602081830303815290604052611ec3565b915091508167ffffffffffffffff1660001415806117f457508051600114155b8061182557508060008151811061180d5761180d612605565b6020910101516001600160f81b03191660f560f81b14155b1561059357604051636890282f60e01b815260040160405180910390fd5b600080611860602060405180602001604052806000815250611f99565b805160209091012090506000611889600170014551231950b75fc4402da1732fc9bebe1961258c565b61189390836125b9565b61189e90600161250d565b9392505050565b6060818015806118c7575070014551231950b75fc4402da1732fc9bebe198110155b156118e557604051633a98faef60e21b815260040160405180910390fd5b60405163bc9e2bcf60e01b815260048101829052600090819073__$4b6656ff4d44dcda56160d380fe9702bb7$__9063bc9e2bcf906024016040805180830381865af4158015611939573d6000803e3d6000fd5b505050506040513d601f19601f8201168201806040525081019061195d91906125cd565b604051600160fa1b6020820152602181018390526041810182905291935091506061016040516020818303038152906040529350505050919050565b6060600060036002856040516119af919061261b565b602060405180830381855afa1580156119cc573d6000803e3d6000fd5b5050506040513d601f19601f820116820180604052508101906119ef9190612573565b604051602001611a0191815260200190565b60408051601f1981840301815290829052611a1b9161261b565b602060405180830381855afa158015611a38573d6000803e3d6000fd5b5050506040515160601b9050600083611a52576000611a58565b606f60f81b5b6040516001600160f81b0319821660208201526bffffffffffffffffffffffff198416602182015290915060009060350160405160208183030381529060405290506000600282604051611aac919061261b565b602060405180830381855afa158015611ac9573d6000803e3d6000fd5b5050506040513d601f19601f82011682018060405250810190611aec9190612573565b90506000600282604051602001611b0591815260200190565b60408051601f1981840301815290829052611b1f9161261b565b602060405180830381855afa158015611b3c573d6000803e3d6000fd5b5050506040513d601f19601f82011682018060405250810190611b5f9190612573565b6040519091508190611b779085908390602001612637565b604051602081830303815290604052965050505050505092915050565b606060006040518060600160405280603a8152602001612761603a91399050600083516002611bc39190612666565b67ffffffffffffffff811115611bdb57611bdb6122e5565b604051908082528060200260200182016040528015611c04578160200160208202803683370190505b509050600160005b8551811015611d1b576000868281518110611c2957611c29612605565b016020015160f81c905060005b83811015611cb857848181518110611c5057611c50612605565b6020026020010151610100611c659190612666565b611c6f908361250d565b9150611c7c603a836125b9565b858281518110611c8e57611c8e612605565b6020908102919091010152611ca4603a836125f1565b915080611cb08161255a565b915050611c36565b505b8015611d0857611ccb603a826125b9565b848481518110611cdd57611cdd612605565b602090810291909101015282611cf28161255a565b9350611d019050603a826125f1565b9050611cba565b5080611d138161255a565b915050611c0c565b5060005b855181108015611d4d5750858181518110611d3c57611d3c612605565b01602001516001600160f81b031916155b15611d645780611d5c8161255a565b915050611d1f565b6000611d70828461250d565b67ffffffffffffffff811115611d8857611d886122e5565b6040519080825280601f01601f191660200182016040528015611db2576020820181803683370190505b50905060005b82811015611e195785600081518110611dd357611dd3612605565b602001015160f81c60f81b828281518110611df057611df0612605565b60200101906001600160f81b031916908160001a90535080611e118161255a565b915050611db8565b5060005b83811015611eb857858582611e3360018861258c565b611e3d919061258c565b81518110611e4d57611e4d612605565b602002602001015181518110611e6557611e65612605565b01602001516001600160f81b03191682611e7f838661250d565b81518110611e8f57611e8f612605565b60200101906001600160f81b031916908160001a90535080611eb08161255a565b915050611e1d565b509695505050505050565b600060606000807301000000000000000000000000000000000001036001600160a01b03168686604051602001611efb929190612685565b60408051601f1981840301815290829052611f159161261b565b600060405180830381855afa9150503d8060008114611f50576040519150601f19603f3d011682016040523d82523d6000602084013e611f55565b606091505b509150915081611f7857604051631205d29f60e31b815260040160405180910390fd5b80806020019051810190611f8c91906126b3565b9097909650945050505050565b60606000806001600160981b016001600160a01b03168585604051602001611fc2929190612747565b60408051601f1981840301815290829052611fdc9161261b565b600060405180830381855afa9150503d8060008114612017576040519150601f19603f3d011682016040523d82523d6000602084013e61201c565b606091505b5091509150816120645760405162461bcd60e51b81526020600482015260136024820152721c985b991bdb509e5d195cce8819985a5b1959606a1b6044820152606401610567565b949350505050565b8280546120789061247b565b90600052602060002090601f01602090048101928261209a57600085556120e0565b82601f106120b357805160ff19168380011785556120e0565b828001600101855582156120e0579182015b828111156120e05782518255916020019190600101906120c5565b506120ec9291506120f0565b5090565b5b808211156120ec57600081556001016120f1565b60005b83811015612120578181015183820152602001612108565b8381111561116c5750506000910152565b60008151808452612149816020860160208601612105565b601f01601f19169290920160200192915050565b60208152600061189e6020830184612131565b80356001600160a01b038116811461218757600080fd5b919050565b6000806040838503121561219f57600080fd5b6121a883612170565b946020939093013593505050565b6000806000606084860312156121cb57600080fd5b6121d484612170565b95602085013595506040909401359392505050565b6000602082840312156121fb57600080fd5b5035919050565b600061014060018060a01b038d1683528b60208401528a60408401528060608401526122308184018b612131565b6080840199909952505060ff95861660a082015260c081019490945260e084019290925261010083015290911661012090910152949350505050565b60008060006060848603121561228157600080fd5b61228a84612170565b925061229860208501612170565b9150604084013590509250925092565b600080604083850312156122bb57600080fd5b50508035926020909101359150565b6000602082840312156122dc57600080fd5b61189e82612170565b634e487b7160e01b600052604160045260246000fd5b604051601f8201601f1916810167ffffffffffffffff81118282101715612324576123246122e5565b604052919050565b600067ffffffffffffffff821115612346576123466122e5565b50601f01601f191660200190565b600082601f83011261236557600080fd5b81356123786123738261232c565b6122fb565b81815284602083860101111561238d57600080fd5b816020850160208301376000918101602001919091529392505050565b600080604083850312156123bd57600080fd5b82359150602083013567ffffffffffffffff8111156123db57600080fd5b6123e785828601612354565b9150509250929050565b60008060006060848603121561240657600080fd5b83359250602084013567ffffffffffffffff81111561242457600080fd5b61243086828701612354565b92505061243f60408501612170565b90509250925092565b6000806040838503121561245b57600080fd5b61246483612170565b915061247260208401612170565b90509250929050565b600181811c9082168061248f57607f821691505b6020821081036124af57634e487b7160e01b600052602260045260246000fd5b50919050565b60208082526022908201527f5472616e73616374696f6e206861736820616c72656164792070726f63657373604082015261195960f21b606082015260800190565b634e487b7160e01b600052601160045260246000fd5b60008219821115612520576125206124f7565b500190565b83815260606020820152600061253e6060830185612131565b82810360408401526125508185612131565b9695505050505050565b60006001820161256c5761256c6124f7565b5060010190565b60006020828403121561258557600080fd5b5051919050565b60008282101561259e5761259e6124f7565b500390565b634e487b7160e01b600052601260045260246000fd5b6000826125c8576125c86125a3565b500690565b600080604083850312156125e057600080fd5b505080516020909101519092909150565b600082612600576126006125a3565b500490565b634e487b7160e01b600052603260045260246000fd5b6000825161262d818460208701612105565b9190910192915050565b60008351612649818460208801612105565b6001600160e01b0319939093169190920190815260040192915050565b6000816000190483118215151615612680576126806124f7565b500290565b6040815260006126986040830185612131565b82810360208401526126aa8185612131565b95945050505050565b600080604083850312156126c657600080fd5b825167ffffffffffffffff80821682146126df57600080fd5b6020850151919350808211156126f457600080fd5b508301601f8101851361270657600080fd5b80516127146123738261232c565b81815286602083850101111561272957600080fd5b61273a826020830160208601612105565b8093505050509250929050565b828152604060208201526000612064604083018461213156fe31323334353637383941424344454647484a4b4c4d4e505152535455565758595a6162636465666768696a6b6d6e6f707172737475767778797aa2646970667358221220d23b912e7b07e8312ff064ae1b331172e8785a1e93ef2952128d3204971ee7ab64736f6c634300080d0033",
  "linkReferences": {
    "contracts/utils/RFC6979.sol": {
      "RFC6979": [
        {
          "length": 20,
          "start": 5553
        }
      ]
    },
    "contracts/utils/SECP256K1.sol": {
      "SECP256K1": [
        {
          "length": 20,
          "start": 5727
        },
        {
          "length": 20,
          "start": 5903
        },
        {
          "length": 20,
          "start": 6971
        }
      ]
    }
  },
  "deployedLinkReferences": {
    "contracts/utils/RFC6979.sol": {
      "RFC6979": [
        {
          "length": 20,
          "start": 4982
        }
      ]
    },
    "contracts/utils/SECP256K1.sol": {
      "SECP256K1": [
        {
          "length": 20,
          "start": 5156
        },
        {
          "length": 20,
          "start": 5332
        },
        {
          "length": 20,
          "start": 6400
        }
      ]
    }
  }
}